{
  "_format": "hh-sol-artifact-1",
  "contractName": "Minter2",
  "sourceName": "contracts/Minter2.sol",
  "abi": [
    {
      "inputs": [],
      "stateMutability": "nonpayable",
      "type": "constructor"
    },
    {
      "anonymous": false,
      "inputs": [
        {
          "indexed": true,
          "internalType": "address",
          "name": "owner",
          "type": "address"
        },
        {
          "indexed": true,
          "internalType": "address",
          "name": "approved",
          "type": "address"
        },
        {
          "indexed": true,
          "internalType": "uint256",
          "name": "tokenId",
          "type": "uint256"
        }
      ],
      "name": "Approval",
      "type": "event"
    },
    {
      "anonymous": false,
      "inputs": [
        {
          "indexed": true,
          "internalType": "address",
          "name": "owner",
          "type": "address"
        },
        {
          "indexed": true,
          "internalType": "address",
          "name": "operator",
          "type": "address"
        },
        {
          "indexed": false,
          "internalType": "bool",
          "name": "approved",
          "type": "bool"
        }
      ],
      "name": "ApprovalForAll",
      "type": "event"
    },
    {
      "anonymous": false,
      "inputs": [
        {
          "indexed": true,
          "internalType": "address",
          "name": "from",
          "type": "address"
        },
        {
          "indexed": true,
          "internalType": "address",
          "name": "to",
          "type": "address"
        },
        {
          "indexed": true,
          "internalType": "uint256",
          "name": "tokenId",
          "type": "uint256"
        }
      ],
      "name": "Transfer",
      "type": "event"
    },
    {
      "inputs": [
        {
          "internalType": "address",
          "name": "to",
          "type": "address"
        },
        {
          "internalType": "uint256",
          "name": "tokenId",
          "type": "uint256"
        }
      ],
      "name": "approve",
      "outputs": [],
      "stateMutability": "nonpayable",
      "type": "function"
    },
    {
      "inputs": [
        {
          "internalType": "address",
          "name": "owner",
          "type": "address"
        }
      ],
      "name": "balanceOf",
      "outputs": [
        {
          "internalType": "uint256",
          "name": "",
          "type": "uint256"
        }
      ],
      "stateMutability": "view",
      "type": "function"
    },
    {
      "inputs": [
        {
          "internalType": "uint256",
          "name": "tokenId",
          "type": "uint256"
        }
      ],
      "name": "getApproved",
      "outputs": [
        {
          "internalType": "address",
          "name": "",
          "type": "address"
        }
      ],
      "stateMutability": "view",
      "type": "function"
    },
    {
      "inputs": [
        {
          "internalType": "address",
          "name": "owner",
          "type": "address"
        },
        {
          "internalType": "address",
          "name": "operator",
          "type": "address"
        }
      ],
      "name": "isApprovedForAll",
      "outputs": [
        {
          "internalType": "bool",
          "name": "",
          "type": "bool"
        }
      ],
      "stateMutability": "view",
      "type": "function"
    },
    {
      "inputs": [
        {
          "internalType": "string",
          "name": "tokenURI",
          "type": "string"
        }
      ],
      "name": "mint",
      "outputs": [],
      "stateMutability": "payable",
      "type": "function"
    },
    {
      "inputs": [],
      "name": "mintPrice",
      "outputs": [
        {
          "internalType": "uint256",
          "name": "",
          "type": "uint256"
        }
      ],
      "stateMutability": "view",
      "type": "function"
    },
    {
      "inputs": [],
      "name": "name",
      "outputs": [
        {
          "internalType": "string",
          "name": "",
          "type": "string"
        }
      ],
      "stateMutability": "view",
      "type": "function"
    },
    {
      "inputs": [
        {
          "internalType": "uint256",
          "name": "tokenId",
          "type": "uint256"
        }
      ],
      "name": "ownerOf",
      "outputs": [
        {
          "internalType": "address",
          "name": "",
          "type": "address"
        }
      ],
      "stateMutability": "view",
      "type": "function"
    },
    {
      "inputs": [
        {
          "internalType": "address",
          "name": "from",
          "type": "address"
        },
        {
          "internalType": "address",
          "name": "to",
          "type": "address"
        },
        {
          "internalType": "uint256",
          "name": "tokenId",
          "type": "uint256"
        }
      ],
      "name": "safeTransferFrom",
      "outputs": [],
      "stateMutability": "nonpayable",
      "type": "function"
    },
    {
      "inputs": [
        {
          "internalType": "address",
          "name": "from",
          "type": "address"
        },
        {
          "internalType": "address",
          "name": "to",
          "type": "address"
        },
        {
          "internalType": "uint256",
          "name": "tokenId",
          "type": "uint256"
        },
        {
          "internalType": "bytes",
          "name": "_data",
          "type": "bytes"
        }
      ],
      "name": "safeTransferFrom",
      "outputs": [],
      "stateMutability": "nonpayable",
      "type": "function"
    },
    {
      "inputs": [
        {
          "internalType": "address",
          "name": "operator",
          "type": "address"
        },
        {
          "internalType": "bool",
          "name": "approved",
          "type": "bool"
        }
      ],
      "name": "setApprovalForAll",
      "outputs": [],
      "stateMutability": "nonpayable",
      "type": "function"
    },
    {
      "inputs": [
        {
          "internalType": "bytes4",
          "name": "interfaceId",
          "type": "bytes4"
        }
      ],
      "name": "supportsInterface",
      "outputs": [
        {
          "internalType": "bool",
          "name": "",
          "type": "bool"
        }
      ],
      "stateMutability": "view",
      "type": "function"
    },
    {
      "inputs": [],
      "name": "symbol",
      "outputs": [
        {
          "internalType": "string",
          "name": "",
          "type": "string"
        }
      ],
      "stateMutability": "view",
      "type": "function"
    },
    {
      "inputs": [
        {
          "internalType": "uint256",
          "name": "tokenId",
          "type": "uint256"
        }
      ],
      "name": "tokenURI",
      "outputs": [
        {
          "internalType": "string",
          "name": "",
          "type": "string"
        }
      ],
      "stateMutability": "view",
      "type": "function"
    },
    {
      "inputs": [
        {
          "internalType": "address",
          "name": "from",
          "type": "address"
        },
        {
          "internalType": "address",
          "name": "to",
          "type": "address"
        },
        {
          "internalType": "uint256",
          "name": "tokenId",
          "type": "uint256"
        }
      ],
      "name": "transferFrom",
      "outputs": [],
      "stateMutability": "nonpayable",
      "type": "function"
    }
  ],
  "bytecode": "0x60806040523480156200001157600080fd5b506040518060400160405280600781526020017f4d696e74657232000000000000000000000000000000000000000000000000008152506040518060400160405280600781526020017f4d494e5445523200000000000000000000000000000000000000000000000000815250816000908051906020019062000096929190620000b8565b508060019080519060200190620000af929190620000b8565b505050620001cd565b828054620000c69062000168565b90600052602060002090601f016020900481019282620000ea576000855562000136565b82601f106200010557805160ff191683800117855562000136565b8280016001018555821562000136579182015b828111156200013557825182559160200191906001019062000118565b5b50905062000145919062000149565b5090565b5b80821115620001645760008160009055506001016200014a565b5090565b600060028204905060018216806200018157607f821691505b602082108114156200019857620001976200019e565b5b50919050565b7f4e487b7100000000000000000000000000000000000000000000000000000000600052602260045260246000fd5b612d4980620001dd6000396000f3fe6080604052600436106100e85760003560e01c80636817c76c1161008a578063b88d4fde11610059578063b88d4fde14610306578063c87b56dd1461032f578063d85d3d271461036c578063e985e9c514610388576100e8565b80636817c76c1461024a57806370a082311461027557806395d89b41146102b2578063a22cb465146102dd576100e8565b8063095ea7b3116100c6578063095ea7b31461019257806323b872dd146101bb57806342842e0e146101e45780636352211e1461020d576100e8565b806301ffc9a7146100ed57806306fdde031461012a578063081812fc14610155575b600080fd5b3480156100f957600080fd5b50610114600480360381019061010f9190611d49565b6103c5565b60405161012191906121b3565b60405180910390f35b34801561013657600080fd5b5061013f6104a7565b60405161014c91906121ce565b60405180910390f35b34801561016157600080fd5b5061017c60048036038101906101779190611ddc565b610539565b604051610189919061214c565b60405180910390f35b34801561019e57600080fd5b506101b960048036038101906101b49190611d0d565b6105be565b005b3480156101c757600080fd5b506101e260048036038101906101dd9190611c07565b6106d6565b005b3480156101f057600080fd5b5061020b60048036038101906102069190611c07565b610736565b005b34801561021957600080fd5b50610234600480360381019061022f9190611ddc565b610756565b604051610241919061214c565b60405180910390f35b34801561025657600080fd5b5061025f610808565b60405161026c9190612410565b60405180910390f35b34801561028157600080fd5b5061029c60048036038101906102979190611ba2565b610813565b6040516102a99190612410565b60405180910390f35b3480156102be57600080fd5b506102c76108cb565b6040516102d491906121ce565b60405180910390f35b3480156102e957600080fd5b5061030460048036038101906102ff9190611cd1565b61095d565b005b34801561031257600080fd5b5061032d60048036038101906103289190611c56565b610ade565b005b34801561033b57600080fd5b5061035660048036038101906103519190611ddc565b610b40565b60405161036391906121ce565b60405180910390f35b61038660048036038101906103819190611d9b565b610c92565b005b34801561039457600080fd5b506103af60048036038101906103aa9190611bcb565b610d0c565b6040516103bc91906121b3565b60405180910390f35b60007f80ac58cd000000000000000000000000000000000000000000000000000000007bffffffffffffffffffffffffffffffffffffffffffffffffffffffff1916827bffffffffffffffffffffffffffffffffffffffffffffffffffffffff1916148061049057507f5b5e139f000000000000000000000000000000000000000000000000000000007bffffffffffffffffffffffffffffffffffffffffffffffffffffffff1916827bffffffffffffffffffffffffffffffffffffffffffffffffffffffff1916145b806104a0575061049f82610da0565b5b9050919050565b6060600080546104b690612666565b80601f01602080910402602001604051908101604052809291908181526020018280546104e290612666565b801561052f5780601f106105045761010080835404028352916020019161052f565b820191906000526020600020905b81548152906001019060200180831161051257829003601f168201915b5050505050905090565b600061054482610e0a565b610583576040517f08c379a000000000000000000000000000000000000000000000000000000000815260040161057a90612370565b60405180910390fd5b6004600083815260200190815260200160002060009054906101000a900473ffffffffffffffffffffffffffffffffffffffff169050919050565b60006105c982610756565b90508073ffffffffffffffffffffffffffffffffffffffff168373ffffffffffffffffffffffffffffffffffffffff16141561063a576040517f08c379a0000000000000000000000000000000000000000000000000000000008152600401610631906123d0565b60405180910390fd5b8073ffffffffffffffffffffffffffffffffffffffff16610659610e76565b73ffffffffffffffffffffffffffffffffffffffff161480610688575061068781610682610e76565b610d0c565b5b6106c7576040517f08c379a00000000000000000000000000000000000000000000000000000000081526004016106be906122b0565b60405180910390fd5b6106d18383610e7e565b505050565b6106e76106e1610e76565b82610f37565b610726576040517f08c379a000000000000000000000000000000000000000000000000000000000815260040161071d906123f0565b60405180910390fd5b610731838383611015565b505050565b61075183838360405180602001604052806000815250610ade565b505050565b6000806002600084815260200190815260200160002060009054906101000a900473ffffffffffffffffffffffffffffffffffffffff169050600073ffffffffffffffffffffffffffffffffffffffff168173ffffffffffffffffffffffffffffffffffffffff1614156107ff576040517f08c379a00000000000000000000000000000000000000000000000000000000081526004016107f6906122f0565b60405180910390fd5b80915050919050565b666a94d74f43000081565b60008073ffffffffffffffffffffffffffffffffffffffff168273ffffffffffffffffffffffffffffffffffffffff161415610884576040517f08c379a000000000000000000000000000000000000000000000000000000000815260040161087b906122d0565b60405180910390fd5b600360008373ffffffffffffffffffffffffffffffffffffffff1673ffffffffffffffffffffffffffffffffffffffff168152602001908152602001600020549050919050565b6060600180546108da90612666565b80601f016020809104026020016040519081016040528092919081815260200182805461090690612666565b80156109535780601f1061092857610100808354040283529160200191610953565b820191906000526020600020905b81548152906001019060200180831161093657829003601f168201915b5050505050905090565b610965610e76565b73ffffffffffffffffffffffffffffffffffffffff168273ffffffffffffffffffffffffffffffffffffffff1614156109d3576040517f08c379a00000000000000000000000000000000000000000000000000000000081526004016109ca90612270565b60405180910390fd5b80600560006109e0610e76565b73ffffffffffffffffffffffffffffffffffffffff1673ffffffffffffffffffffffffffffffffffffffff16815260200190815260200160002060008473ffffffffffffffffffffffffffffffffffffffff1673ffffffffffffffffffffffffffffffffffffffff16815260200190815260200160002060006101000a81548160ff0219169083151502179055508173ffffffffffffffffffffffffffffffffffffffff16610a8d610e76565b73ffffffffffffffffffffffffffffffffffffffff167f17307eab39ab6107e8899845ad3d59bd9653f200f220920489ca2b5937696c3183604051610ad291906121b3565b60405180910390a35050565b610aef610ae9610e76565b83610f37565b610b2e576040517f08c379a0000000000000000000000000000000000000000000000000000000008152600401610b25906123f0565b60405180910390fd5b610b3a84848484611271565b50505050565b6060610b4b82610e0a565b610b8a576040517f08c379a0000000000000000000000000000000000000000000000000000000008152600401610b8190612350565b60405180910390fd5b6000600660008481526020019081526020016000208054610baa90612666565b80601f0160208091040260200160405190810160405280929190818152602001828054610bd690612666565b8015610c235780601f10610bf857610100808354040283529160200191610c23565b820191906000526020600020905b815481529060010190602001808311610c0657829003601f168201915b505050505090506000610c346112cd565b9050600081511415610c4a578192505050610c8d565b600082511115610c7f578082604051602001610c67929190612128565b60405160208183030381529060405292505050610c8d565b610c88846112e4565b925050505b919050565b34666a94d74f4300001115610cdc576040517f08c379a0000000000000000000000000000000000000000000000000000000008152600401610cd3906121f0565b60405180910390fd5b610ce6600761138b565b6000610cf260076113a1565b9050610cfe33826113af565b610d0881836113cd565b5050565b6000600560008473ffffffffffffffffffffffffffffffffffffffff1673ffffffffffffffffffffffffffffffffffffffff16815260200190815260200160002060008373ffffffffffffffffffffffffffffffffffffffff1673ffffffffffffffffffffffffffffffffffffffff16815260200190815260200160002060009054906101000a900460ff16905092915050565b60007f01ffc9a7000000000000000000000000000000000000000000000000000000007bffffffffffffffffffffffffffffffffffffffffffffffffffffffff1916827bffffffffffffffffffffffffffffffffffffffffffffffffffffffff1916149050919050565b60008073ffffffffffffffffffffffffffffffffffffffff166002600084815260200190815260200160002060009054906101000a900473ffffffffffffffffffffffffffffffffffffffff1673ffffffffffffffffffffffffffffffffffffffff1614159050919050565b600033905090565b816004600083815260200190815260200160002060006101000a81548173ffffffffffffffffffffffffffffffffffffffff021916908373ffffffffffffffffffffffffffffffffffffffff160217905550808273ffffffffffffffffffffffffffffffffffffffff16610ef183610756565b73ffffffffffffffffffffffffffffffffffffffff167f8c5be1e5ebec7d5bd14f71427d1e84f3dd0314c0f7b2291e5b200ac8c7c3b92560405160405180910390a45050565b6000610f4282610e0a565b610f81576040517f08c379a0000000000000000000000000000000000000000000000000000000008152600401610f7890612290565b60405180910390fd5b6000610f8c83610756565b90508073ffffffffffffffffffffffffffffffffffffffff168473ffffffffffffffffffffffffffffffffffffffff161480610ffb57508373ffffffffffffffffffffffffffffffffffffffff16610fe384610539565b73ffffffffffffffffffffffffffffffffffffffff16145b8061100c575061100b8185610d0c565b5b91505092915050565b8273ffffffffffffffffffffffffffffffffffffffff1661103582610756565b73ffffffffffffffffffffffffffffffffffffffff161461108b576040517f08c379a000000000000000000000000000000000000000000000000000000000815260040161108290612390565b60405180910390fd5b600073ffffffffffffffffffffffffffffffffffffffff168273ffffffffffffffffffffffffffffffffffffffff1614156110fb576040517f08c379a00000000000000000000000000000000000000000000000000000000081526004016110f290612250565b60405180910390fd5b611106838383611441565b611111600082610e7e565b6001600360008573ffffffffffffffffffffffffffffffffffffffff1673ffffffffffffffffffffffffffffffffffffffff1681526020019081526020016000206000828254611161919061257c565b925050819055506001600360008473ffffffffffffffffffffffffffffffffffffffff1673ffffffffffffffffffffffffffffffffffffffff16815260200190815260200160002060008282546111b891906124f5565b92505081905550816002600083815260200190815260200160002060006101000a81548173ffffffffffffffffffffffffffffffffffffffff021916908373ffffffffffffffffffffffffffffffffffffffff160217905550808273ffffffffffffffffffffffffffffffffffffffff168473ffffffffffffffffffffffffffffffffffffffff167fddf252ad1be2c89b69c2b068fc378daa952ba7f163c4a11628f55a4df523b3ef60405160405180910390a4505050565b61127c848484611015565b61128884848484611446565b6112c7576040517f08c379a00000000000000000000000000000000000000000000000000000000081526004016112be90612210565b60405180910390fd5b50505050565b606060405180602001604052806000815250905090565b60606112ef82610e0a565b61132e576040517f08c379a0000000000000000000000000000000000000000000000000000000008152600401611325906123b0565b60405180910390fd5b60006113386112cd565b905060008151116113585760405180602001604052806000815250611383565b80611362846115dd565b604051602001611373929190612128565b6040516020818303038152906040525b915050919050565b6001816000016000828254019250508190555050565b600081600001549050919050565b6113c982826040518060200160405280600081525061178a565b5050565b6113d682610e0a565b611415576040517f08c379a000000000000000000000000000000000000000000000000000000000815260040161140c90612310565b60405180910390fd5b8060066000848152602001908152602001600020908051906020019061143c9291906119c6565b505050565b505050565b60006114678473ffffffffffffffffffffffffffffffffffffffff166117e5565b156115d0578373ffffffffffffffffffffffffffffffffffffffff1663150b7a02611490610e76565b8786866040518563ffffffff1660e01b81526004016114b29493929190612167565b602060405180830381600087803b1580156114cc57600080fd5b505af19250505080156114fd57506040513d601f19601f820116820180604052508101906114fa9190611d72565b60015b611580573d806000811461152d576040519150601f19603f3d011682016040523d82523d6000602084013e611532565b606091505b50600081511415611578576040517f08c379a000000000000000000000000000000000000000000000000000000000815260040161156f90612210565b60405180910390fd5b805181602001fd5b63150b7a0260e01b7bffffffffffffffffffffffffffffffffffffffffffffffffffffffff1916817bffffffffffffffffffffffffffffffffffffffffffffffffffffffff1916149150506115d5565b600190505b949350505050565b60606000821415611625576040518060400160405280600181526020017f30000000000000000000000000000000000000000000000000000000000000008152509050611785565b600082905060005b60008214611657578080611640906126c9565b915050600a82611650919061254b565b915061162d565b60008167ffffffffffffffff811115611699577f4e487b7100000000000000000000000000000000000000000000000000000000600052604160045260246000fd5b6040519080825280601f01601f1916602001820160405280156116cb5781602001600182028036833780820191505090505b5090505b6000851461177e576001826116e4919061257c565b9150600a856116f39190612712565b60306116ff91906124f5565b60f81b81838151811061173b577f4e487b7100000000000000000000000000000000000000000000000000000000600052603260045260246000fd5b60200101907effffffffffffffffffffffffffffffffffffffffffffffffffffffffffffff1916908160001a905350600a85611777919061254b565b94506116cf565b8093505050505b919050565b61179483836117f8565b6117a16000848484611446565b6117e0576040517f08c379a00000000000000000000000000000000000000000000000000000000081526004016117d790612210565b60405180910390fd5b505050565b600080823b905060008111915050919050565b600073ffffffffffffffffffffffffffffffffffffffff168273ffffffffffffffffffffffffffffffffffffffff161415611868576040517f08c379a000000000000000000000000000000000000000000000000000000000815260040161185f90612330565b60405180910390fd5b61187181610e0a565b156118b1576040517f08c379a00000000000000000000000000000000000000000000000000000000081526004016118a890612230565b60405180910390fd5b6118bd60008383611441565b6001600360008473ffffffffffffffffffffffffffffffffffffffff1673ffffffffffffffffffffffffffffffffffffffff168152602001908152602001600020600082825461190d91906124f5565b92505081905550816002600083815260200190815260200160002060006101000a81548173ffffffffffffffffffffffffffffffffffffffff021916908373ffffffffffffffffffffffffffffffffffffffff160217905550808273ffffffffffffffffffffffffffffffffffffffff16600073ffffffffffffffffffffffffffffffffffffffff167fddf252ad1be2c89b69c2b068fc378daa952ba7f163c4a11628f55a4df523b3ef60405160405180910390a45050565b8280546119d290612666565b90600052602060002090601f0160209004810192826119f45760008555611a3b565b82601f10611a0d57805160ff1916838001178555611a3b565b82800160010185558215611a3b579182015b82811115611a3a578251825591602001919060010190611a1f565b5b509050611a489190611a4c565b5090565b5b80821115611a65576000816000905550600101611a4d565b5090565b6000611a7c611a7784612450565b61242b565b905082815260208101848484011115611a9457600080fd5b611a9f848285612624565b509392505050565b6000611aba611ab584612481565b61242b565b905082815260208101848484011115611ad257600080fd5b611add848285612624565b509392505050565b600081359050611af481612cb7565b92915050565b600081359050611b0981612cce565b92915050565b600081359050611b1e81612ce5565b92915050565b600081519050611b3381612ce5565b92915050565b600082601f830112611b4a57600080fd5b8135611b5a848260208601611a69565b91505092915050565b600082601f830112611b7457600080fd5b8135611b84848260208601611aa7565b91505092915050565b600081359050611b9c81612cfc565b92915050565b600060208284031215611bb457600080fd5b6000611bc284828501611ae5565b91505092915050565b60008060408385031215611bde57600080fd5b6000611bec85828601611ae5565b9250506020611bfd85828601611ae5565b9150509250929050565b600080600060608486031215611c1c57600080fd5b6000611c2a86828701611ae5565b9350506020611c3b86828701611ae5565b9250506040611c4c86828701611b8d565b9150509250925092565b60008060008060808587031215611c6c57600080fd5b6000611c7a87828801611ae5565b9450506020611c8b87828801611ae5565b9350506040611c9c87828801611b8d565b925050606085013567ffffffffffffffff811115611cb957600080fd5b611cc587828801611b39565b91505092959194509250565b60008060408385031215611ce457600080fd5b6000611cf285828601611ae5565b9250506020611d0385828601611afa565b9150509250929050565b60008060408385031215611d2057600080fd5b6000611d2e85828601611ae5565b9250506020611d3f85828601611b8d565b9150509250929050565b600060208284031215611d5b57600080fd5b6000611d6984828501611b0f565b91505092915050565b600060208284031215611d8457600080fd5b6000611d9284828501611b24565b91505092915050565b600060208284031215611dad57600080fd5b600082013567ffffffffffffffff811115611dc757600080fd5b611dd384828501611b63565b91505092915050565b600060208284031215611dee57600080fd5b6000611dfc84828501611b8d565b91505092915050565b611e0e816125b0565b82525050565b611e1d816125c2565b82525050565b6000611e2e826124b2565b611e3881856124c8565b9350611e48818560208601612633565b611e51816127ff565b840191505092915050565b6000611e67826124bd565b611e7181856124d9565b9350611e81818560208601612633565b611e8a816127ff565b840191505092915050565b6000611ea0826124bd565b611eaa81856124ea565b9350611eba818560208601612633565b80840191505092915050565b6000611ed36014836124d9565b9150611ede82612810565b602082019050919050565b6000611ef66032836124d9565b9150611f0182612839565b604082019050919050565b6000611f19601c836124d9565b9150611f2482612888565b602082019050919050565b6000611f3c6024836124d9565b9150611f47826128b1565b604082019050919050565b6000611f5f6019836124d9565b9150611f6a82612900565b602082019050919050565b6000611f82602c836124d9565b9150611f8d82612929565b604082019050919050565b6000611fa56038836124d9565b9150611fb082612978565b604082019050919050565b6000611fc8602a836124d9565b9150611fd3826129c7565b604082019050919050565b6000611feb6029836124d9565b9150611ff682612a16565b604082019050919050565b600061200e602e836124d9565b915061201982612a65565b604082019050919050565b60006120316020836124d9565b915061203c82612ab4565b602082019050919050565b60006120546031836124d9565b915061205f82612add565b604082019050919050565b6000612077602c836124d9565b915061208282612b2c565b604082019050919050565b600061209a6029836124d9565b91506120a582612b7b565b604082019050919050565b60006120bd602f836124d9565b91506120c882612bca565b604082019050919050565b60006120e06021836124d9565b91506120eb82612c19565b604082019050919050565b60006121036031836124d9565b915061210e82612c68565b604082019050919050565b6121228161261a565b82525050565b60006121348285611e95565b91506121408284611e95565b91508190509392505050565b60006020820190506121616000830184611e05565b92915050565b600060808201905061217c6000830187611e05565b6121896020830186611e05565b6121966040830185612119565b81810360608301526121a88184611e23565b905095945050505050565b60006020820190506121c86000830184611e14565b92915050565b600060208201905081810360008301526121e88184611e5c565b905092915050565b6000602082019050818103600083015261220981611ec6565b9050919050565b6000602082019050818103600083015261222981611ee9565b9050919050565b6000602082019050818103600083015261224981611f0c565b9050919050565b6000602082019050818103600083015261226981611f2f565b9050919050565b6000602082019050818103600083015261228981611f52565b9050919050565b600060208201905081810360008301526122a981611f75565b9050919050565b600060208201905081810360008301526122c981611f98565b9050919050565b600060208201905081810360008301526122e981611fbb565b9050919050565b6000602082019050818103600083015261230981611fde565b9050919050565b6000602082019050818103600083015261232981612001565b9050919050565b6000602082019050818103600083015261234981612024565b9050919050565b6000602082019050818103600083015261236981612047565b9050919050565b600060208201905081810360008301526123898161206a565b9050919050565b600060208201905081810360008301526123a98161208d565b9050919050565b600060208201905081810360008301526123c9816120b0565b9050919050565b600060208201905081810360008301526123e9816120d3565b9050919050565b60006020820190508181036000830152612409816120f6565b9050919050565b60006020820190506124256000830184612119565b92915050565b6000612435612446565b90506124418282612698565b919050565b6000604051905090565b600067ffffffffffffffff82111561246b5761246a6127d0565b5b612474826127ff565b9050602081019050919050565b600067ffffffffffffffff82111561249c5761249b6127d0565b5b6124a5826127ff565b9050602081019050919050565b600081519050919050565b600081519050919050565b600082825260208201905092915050565b600082825260208201905092915050565b600081905092915050565b60006125008261261a565b915061250b8361261a565b9250827fffffffffffffffffffffffffffffffffffffffffffffffffffffffffffffffff038211156125405761253f612743565b5b828201905092915050565b60006125568261261a565b91506125618361261a565b92508261257157612570612772565b5b828204905092915050565b60006125878261261a565b91506125928361261a565b9250828210156125a5576125a4612743565b5b828203905092915050565b60006125bb826125fa565b9050919050565b60008115159050919050565b60007fffffffff0000000000000000000000000000000000000000000000000000000082169050919050565b600073ffffffffffffffffffffffffffffffffffffffff82169050919050565b6000819050919050565b82818337600083830152505050565b60005b83811015612651578082015181840152602081019050612636565b83811115612660576000848401525b50505050565b6000600282049050600182168061267e57607f821691505b60208210811415612692576126916127a1565b5b50919050565b6126a1826127ff565b810181811067ffffffffffffffff821117156126c0576126bf6127d0565b5b80604052505050565b60006126d48261261a565b91507fffffffffffffffffffffffffffffffffffffffffffffffffffffffffffffffff82141561270757612706612743565b5b600182019050919050565b600061271d8261261a565b91506127288361261a565b92508261273857612737612772565b5b828206905092915050565b7f4e487b7100000000000000000000000000000000000000000000000000000000600052601160045260246000fd5b7f4e487b7100000000000000000000000000000000000000000000000000000000600052601260045260246000fd5b7f4e487b7100000000000000000000000000000000000000000000000000000000600052602260045260246000fd5b7f4e487b7100000000000000000000000000000000000000000000000000000000600052604160045260246000fd5b6000601f19601f8301169050919050565b7f4e6f7420656e6f756768204345542073656e742e000000000000000000000000600082015250565b7f4552433732313a207472616e7366657220746f206e6f6e20455243373231526560008201527f63656976657220696d706c656d656e7465720000000000000000000000000000602082015250565b7f4552433732313a20746f6b656e20616c7265616479206d696e74656400000000600082015250565b7f4552433732313a207472616e7366657220746f20746865207a65726f2061646460008201527f7265737300000000000000000000000000000000000000000000000000000000602082015250565b7f4552433732313a20617070726f766520746f2063616c6c657200000000000000600082015250565b7f4552433732313a206f70657261746f7220717565727920666f72206e6f6e657860008201527f697374656e7420746f6b656e0000000000000000000000000000000000000000602082015250565b7f4552433732313a20617070726f76652063616c6c6572206973206e6f74206f7760008201527f6e6572206e6f7220617070726f76656420666f7220616c6c0000000000000000602082015250565b7f4552433732313a2062616c616e636520717565727920666f7220746865207a6560008201527f726f206164647265737300000000000000000000000000000000000000000000602082015250565b7f4552433732313a206f776e657220717565727920666f72206e6f6e657869737460008201527f656e7420746f6b656e0000000000000000000000000000000000000000000000602082015250565b7f45524337323155524953746f726167653a2055524920736574206f66206e6f6e60008201527f6578697374656e7420746f6b656e000000000000000000000000000000000000602082015250565b7f4552433732313a206d696e7420746f20746865207a65726f2061646472657373600082015250565b7f45524337323155524953746f726167653a2055524920717565727920666f722060008201527f6e6f6e6578697374656e7420746f6b656e000000000000000000000000000000602082015250565b7f4552433732313a20617070726f76656420717565727920666f72206e6f6e657860008201527f697374656e7420746f6b656e0000000000000000000000000000000000000000602082015250565b7f4552433732313a207472616e73666572206f6620746f6b656e2074686174206960008201527f73206e6f74206f776e0000000000000000000000000000000000000000000000602082015250565b7f4552433732314d657461646174613a2055524920717565727920666f72206e6f60008201527f6e6578697374656e7420746f6b656e0000000000000000000000000000000000602082015250565b7f4552433732313a20617070726f76616c20746f2063757272656e74206f776e6560008201527f7200000000000000000000000000000000000000000000000000000000000000602082015250565b7f4552433732313a207472616e736665722063616c6c6572206973206e6f74206f60008201527f776e6572206e6f7220617070726f766564000000000000000000000000000000602082015250565b612cc0816125b0565b8114612ccb57600080fd5b50565b612cd7816125c2565b8114612ce257600080fd5b50565b612cee816125ce565b8114612cf957600080fd5b50565b612d058161261a565b8114612d1057600080fd5b5056fea2646970667358221220fe8593863e69f3f4aefcfd93e17a0758c8e205f6fe4fe966ae1c822856e8705f64736f6c63430008040033",
  "linkReferences": {},
  "deployedLinkReferences": {}
}