{
  "_format": "hh-sol-artifact-1",
  "contractName": "Minter7",
  "sourceName": "contracts/Minter7.sol",
  "abi": [
    {
      "inputs": [],
      "stateMutability": "nonpayable",
      "type": "constructor"
    },
    {
      "anonymous": false,
      "inputs": [
        {
          "indexed": true,
          "internalType": "address",
          "name": "owner",
          "type": "address"
        },
        {
          "indexed": true,
          "internalType": "address",
          "name": "approved",
          "type": "address"
        },
        {
          "indexed": true,
          "internalType": "uint256",
          "name": "tokenId",
          "type": "uint256"
        }
      ],
      "name": "Approval",
      "type": "event"
    },
    {
      "anonymous": false,
      "inputs": [
        {
          "indexed": true,
          "internalType": "address",
          "name": "owner",
          "type": "address"
        },
        {
          "indexed": true,
          "internalType": "address",
          "name": "operator",
          "type": "address"
        },
        {
          "indexed": false,
          "internalType": "bool",
          "name": "approved",
          "type": "bool"
        }
      ],
      "name": "ApprovalForAll",
      "type": "event"
    },
    {
      "anonymous": false,
      "inputs": [
        {
          "indexed": true,
          "internalType": "address",
          "name": "previousOwner",
          "type": "address"
        },
        {
          "indexed": true,
          "internalType": "address",
          "name": "newOwner",
          "type": "address"
        }
      ],
      "name": "OwnershipTransferred",
      "type": "event"
    },
    {
      "anonymous": false,
      "inputs": [
        {
          "indexed": true,
          "internalType": "address",
          "name": "from",
          "type": "address"
        },
        {
          "indexed": true,
          "internalType": "address",
          "name": "to",
          "type": "address"
        },
        {
          "indexed": true,
          "internalType": "uint256",
          "name": "tokenId",
          "type": "uint256"
        }
      ],
      "name": "Transfer",
      "type": "event"
    },
    {
      "inputs": [
        {
          "internalType": "address",
          "name": "",
          "type": "address"
        }
      ],
      "name": "addressToAmountDonate",
      "outputs": [
        {
          "internalType": "uint256",
          "name": "",
          "type": "uint256"
        }
      ],
      "stateMutability": "view",
      "type": "function"
    },
    {
      "inputs": [
        {
          "internalType": "address",
          "name": "",
          "type": "address"
        }
      ],
      "name": "addressToAmountMint",
      "outputs": [
        {
          "internalType": "uint256",
          "name": "",
          "type": "uint256"
        }
      ],
      "stateMutability": "view",
      "type": "function"
    },
    {
      "inputs": [
        {
          "internalType": "address",
          "name": "to",
          "type": "address"
        },
        {
          "internalType": "uint256",
          "name": "tokenId",
          "type": "uint256"
        }
      ],
      "name": "approve",
      "outputs": [],
      "stateMutability": "nonpayable",
      "type": "function"
    },
    {
      "inputs": [
        {
          "internalType": "address",
          "name": "owner",
          "type": "address"
        }
      ],
      "name": "balanceOf",
      "outputs": [
        {
          "internalType": "uint256",
          "name": "",
          "type": "uint256"
        }
      ],
      "stateMutability": "view",
      "type": "function"
    },
    {
      "inputs": [],
      "name": "donate",
      "outputs": [],
      "stateMutability": "payable",
      "type": "function"
    },
    {
      "inputs": [
        {
          "internalType": "uint256",
          "name": "tokenId",
          "type": "uint256"
        }
      ],
      "name": "getApproved",
      "outputs": [
        {
          "internalType": "address",
          "name": "",
          "type": "address"
        }
      ],
      "stateMutability": "view",
      "type": "function"
    },
    {
      "inputs": [
        {
          "internalType": "address",
          "name": "owner",
          "type": "address"
        },
        {
          "internalType": "address",
          "name": "operator",
          "type": "address"
        }
      ],
      "name": "isApprovedForAll",
      "outputs": [
        {
          "internalType": "bool",
          "name": "",
          "type": "bool"
        }
      ],
      "stateMutability": "view",
      "type": "function"
    },
    {
      "inputs": [
        {
          "internalType": "string",
          "name": "tokenURI",
          "type": "string"
        }
      ],
      "name": "mint",
      "outputs": [],
      "stateMutability": "payable",
      "type": "function"
    },
    {
      "inputs": [],
      "name": "mintPrice",
      "outputs": [
        {
          "internalType": "uint256",
          "name": "",
          "type": "uint256"
        }
      ],
      "stateMutability": "view",
      "type": "function"
    },
    {
      "inputs": [
        {
          "internalType": "address",
          "name": "to",
          "type": "address"
        },
        {
          "internalType": "string",
          "name": "tokenURI",
          "type": "string"
        }
      ],
      "name": "mintTo",
      "outputs": [],
      "stateMutability": "nonpayable",
      "type": "function"
    },
    {
      "inputs": [],
      "name": "name",
      "outputs": [
        {
          "internalType": "string",
          "name": "",
          "type": "string"
        }
      ],
      "stateMutability": "view",
      "type": "function"
    },
    {
      "inputs": [],
      "name": "owner",
      "outputs": [
        {
          "internalType": "address",
          "name": "",
          "type": "address"
        }
      ],
      "stateMutability": "view",
      "type": "function"
    },
    {
      "inputs": [
        {
          "internalType": "uint256",
          "name": "tokenId",
          "type": "uint256"
        }
      ],
      "name": "ownerOf",
      "outputs": [
        {
          "internalType": "address",
          "name": "",
          "type": "address"
        }
      ],
      "stateMutability": "view",
      "type": "function"
    },
    {
      "inputs": [],
      "name": "renounceOwnership",
      "outputs": [],
      "stateMutability": "nonpayable",
      "type": "function"
    },
    {
      "inputs": [
        {
          "internalType": "address",
          "name": "from",
          "type": "address"
        },
        {
          "internalType": "address",
          "name": "to",
          "type": "address"
        },
        {
          "internalType": "uint256",
          "name": "tokenId",
          "type": "uint256"
        }
      ],
      "name": "safeTransferFrom",
      "outputs": [],
      "stateMutability": "nonpayable",
      "type": "function"
    },
    {
      "inputs": [
        {
          "internalType": "address",
          "name": "from",
          "type": "address"
        },
        {
          "internalType": "address",
          "name": "to",
          "type": "address"
        },
        {
          "internalType": "uint256",
          "name": "tokenId",
          "type": "uint256"
        },
        {
          "internalType": "bytes",
          "name": "_data",
          "type": "bytes"
        }
      ],
      "name": "safeTransferFrom",
      "outputs": [],
      "stateMutability": "nonpayable",
      "type": "function"
    },
    {
      "inputs": [
        {
          "internalType": "address",
          "name": "to",
          "type": "address"
        },
        {
          "internalType": "uint256",
          "name": "tokenId",
          "type": "uint256"
        }
      ],
      "name": "send",
      "outputs": [],
      "stateMutability": "nonpayable",
      "type": "function"
    },
    {
      "inputs": [
        {
          "internalType": "address",
          "name": "operator",
          "type": "address"
        },
        {
          "internalType": "bool",
          "name": "approved",
          "type": "bool"
        }
      ],
      "name": "setApprovalForAll",
      "outputs": [],
      "stateMutability": "nonpayable",
      "type": "function"
    },
    {
      "inputs": [
        {
          "internalType": "uint256",
          "name": "newMintPrice",
          "type": "uint256"
        }
      ],
      "name": "setMintPrice",
      "outputs": [],
      "stateMutability": "nonpayable",
      "type": "function"
    },
    {
      "inputs": [
        {
          "internalType": "bytes4",
          "name": "interfaceId",
          "type": "bytes4"
        }
      ],
      "name": "supportsInterface",
      "outputs": [
        {
          "internalType": "bool",
          "name": "",
          "type": "bool"
        }
      ],
      "stateMutability": "view",
      "type": "function"
    },
    {
      "inputs": [],
      "name": "symbol",
      "outputs": [
        {
          "internalType": "string",
          "name": "",
          "type": "string"
        }
      ],
      "stateMutability": "view",
      "type": "function"
    },
    {
      "inputs": [
        {
          "internalType": "uint256",
          "name": "index",
          "type": "uint256"
        }
      ],
      "name": "tokenByIndex",
      "outputs": [
        {
          "internalType": "uint256",
          "name": "",
          "type": "uint256"
        }
      ],
      "stateMutability": "view",
      "type": "function"
    },
    {
      "inputs": [
        {
          "internalType": "address",
          "name": "owner",
          "type": "address"
        },
        {
          "internalType": "uint256",
          "name": "index",
          "type": "uint256"
        }
      ],
      "name": "tokenOfOwnerByIndex",
      "outputs": [
        {
          "internalType": "uint256",
          "name": "",
          "type": "uint256"
        }
      ],
      "stateMutability": "view",
      "type": "function"
    },
    {
      "inputs": [
        {
          "internalType": "uint256",
          "name": "tokenId",
          "type": "uint256"
        }
      ],
      "name": "tokenURI",
      "outputs": [
        {
          "internalType": "string",
          "name": "",
          "type": "string"
        }
      ],
      "stateMutability": "view",
      "type": "function"
    },
    {
      "inputs": [],
      "name": "totalSupply",
      "outputs": [
        {
          "internalType": "uint256",
          "name": "",
          "type": "uint256"
        }
      ],
      "stateMutability": "view",
      "type": "function"
    },
    {
      "inputs": [
        {
          "internalType": "address",
          "name": "from",
          "type": "address"
        },
        {
          "internalType": "address",
          "name": "to",
          "type": "address"
        },
        {
          "internalType": "uint256",
          "name": "tokenId",
          "type": "uint256"
        }
      ],
      "name": "transferFrom",
      "outputs": [],
      "stateMutability": "nonpayable",
      "type": "function"
    },
    {
      "inputs": [
        {
          "internalType": "address",
          "name": "newOwner",
          "type": "address"
        }
      ],
      "name": "transferOwnership",
      "outputs": [],
      "stateMutability": "nonpayable",
      "type": "function"
    }
  ],
  "bytecode": "0x6080604052670de0b6b3a7640000600d553480156200001d57600080fd5b506040518060400160405280600781526020017f4d696e74657237000000000000000000000000000000000000000000000000008152506040518060400160405280600781526020017f4d494e54455237000000000000000000000000000000000000000000000000008152508160009080519060200190620000a2929190620001b2565b508060019080519060200190620000bb929190620001b2565b505050620000de620000d2620000e460201b60201c565b620000ec60201b60201c565b620002c7565b600033905090565b6000600b60009054906101000a900473ffffffffffffffffffffffffffffffffffffffff16905081600b60006101000a81548173ffffffffffffffffffffffffffffffffffffffff021916908373ffffffffffffffffffffffffffffffffffffffff1602179055508173ffffffffffffffffffffffffffffffffffffffff168173ffffffffffffffffffffffffffffffffffffffff167f8be0079c531659141344cd1fd0a4f28419497f9722a3daafe3b4186f6b6457e060405160405180910390a35050565b828054620001c09062000262565b90600052602060002090601f016020900481019282620001e4576000855562000230565b82601f10620001ff57805160ff191683800117855562000230565b8280016001018555821562000230579182015b828111156200022f57825182559160200191906001019062000212565b5b5090506200023f919062000243565b5090565b5b808211156200025e57600081600090555060010162000244565b5090565b600060028204905060018216806200027b57607f821691505b6020821081141562000292576200029162000298565b5b50919050565b7f4e487b7100000000000000000000000000000000000000000000000000000000600052602260045260246000fd5b613f0880620002d76000396000f3fe60806040526004361061019b5760003560e01c806370a08231116100ec578063c87b56dd1161008a578063e985e9c511610064578063e985e9c5146105ee578063ed88c68e1461062b578063f2fde38b14610635578063f4a0a5281461065e5761019b565b8063c87b56dd1461056c578063d0679d34146105a9578063d85d3d27146105d25761019b565b806395d89b41116100c657806395d89b41146104b2578063a22cb465146104dd578063b88d4fde14610506578063bf1882471461052f5761019b565b806370a0823114610433578063715018a6146104705780638da5cb5b146104875761019b565b806323b872dd116101595780634f6ccce7116101335780634f6ccce7146103515780636352211e1461038e5780636817c76c146103cb5780636bb5a3e0146103f65761019b565b806323b872dd146102c25780632f745c59146102eb57806342842e0e146103285761019b565b806275a317146101a057806301ffc9a7146101c957806306fdde0314610206578063081812fc14610231578063095ea7b31461026e57806318160ddd14610297575b600080fd5b3480156101ac57600080fd5b506101c760048036038101906101c29190612bea565b610687565b005b3480156101d557600080fd5b506101f060048036038101906101eb9190612c7a565b610734565b6040516101fd9190613193565b60405180910390f35b34801561021257600080fd5b5061021b610746565b60405161022891906131ae565b60405180910390f35b34801561023d57600080fd5b5061025860048036038101906102539190612d0d565b6107d8565b604051610265919061312c565b60405180910390f35b34801561027a57600080fd5b5061029560048036038101906102909190612c3e565b61085d565b005b3480156102a357600080fd5b506102ac610975565b6040516102b99190613490565b60405180910390f35b3480156102ce57600080fd5b506102e960048036038101906102e49190612ae4565b610982565b005b3480156102f757600080fd5b50610312600480360381019061030d9190612c3e565b6109e2565b60405161031f9190613490565b60405180910390f35b34801561033457600080fd5b5061034f600480360381019061034a9190612ae4565b610a87565b005b34801561035d57600080fd5b5061037860048036038101906103739190612d0d565b610aa7565b6040516103859190613490565b60405180910390f35b34801561039a57600080fd5b506103b560048036038101906103b09190612d0d565b610b3e565b6040516103c2919061312c565b60405180910390f35b3480156103d757600080fd5b506103e0610bf0565b6040516103ed9190613490565b60405180910390f35b34801561040257600080fd5b5061041d60048036038101906104189190612a7f565b610bf6565b60405161042a9190613490565b60405180910390f35b34801561043f57600080fd5b5061045a60048036038101906104559190612a7f565b610c0e565b6040516104679190613490565b60405180910390f35b34801561047c57600080fd5b50610485610cc6565b005b34801561049357600080fd5b5061049c610d4e565b6040516104a9919061312c565b60405180910390f35b3480156104be57600080fd5b506104c7610d78565b6040516104d491906131ae565b60405180910390f35b3480156104e957600080fd5b5061050460048036038101906104ff9190612bae565b610e0a565b005b34801561051257600080fd5b5061052d60048036038101906105289190612b33565b610f8b565b005b34801561053b57600080fd5b5061055660048036038101906105519190612a7f565b610fed565b6040516105639190613490565b60405180910390f35b34801561057857600080fd5b50610593600480360381019061058e9190612d0d565b611005565b6040516105a091906131ae565b60405180910390f35b3480156105b557600080fd5b506105d060048036038101906105cb9190612c3e565b611017565b005b6105ec60048036038101906105e79190612ccc565b61109c565b005b3480156105fa57600080fd5b5061061560048036038101906106109190612aa8565b6111b5565b6040516106229190613193565b60405180910390f35b610633611249565b005b34801561064157600080fd5b5061065c60048036038101906106579190612a7f565b6112ef565b005b34801561066a57600080fd5b5061068560048036038101906106809190612d0d565b6113e7565b005b61068f61146d565b73ffffffffffffffffffffffffffffffffffffffff166106ad610d4e565b73ffffffffffffffffffffffffffffffffffffffff1614610703576040517f08c379a00000000000000000000000000000000000000000000000000000000081526004016106fa906133b0565b60405180910390fd5b600061070f600c611475565b905061071b600c611483565b6107258382611499565b61072f81836114b7565b505050565b600061073f8261152b565b9050919050565b606060008054610755906136e6565b80601f0160208091040260200160405190810160405280929190818152602001828054610781906136e6565b80156107ce5780601f106107a3576101008083540402835291602001916107ce565b820191906000526020600020905b8154815290600101906020018083116107b157829003601f168201915b5050505050905090565b60006107e3826115a5565b610822576040517f08c379a000000000000000000000000000000000000000000000000000000000815260040161081990613390565b60405180910390fd5b6004600083815260200190815260200160002060009054906101000a900473ffffffffffffffffffffffffffffffffffffffff169050919050565b600061086882610b3e565b90508073ffffffffffffffffffffffffffffffffffffffff168373ffffffffffffffffffffffffffffffffffffffff1614156108d9576040517f08c379a00000000000000000000000000000000000000000000000000000000081526004016108d090613410565b60405180910390fd5b8073ffffffffffffffffffffffffffffffffffffffff166108f861146d565b73ffffffffffffffffffffffffffffffffffffffff16148061092757506109268161092161146d565b6111b5565b5b610966576040517f08c379a000000000000000000000000000000000000000000000000000000000815260040161095d906132d0565b60405180910390fd5b6109708383611611565b505050565b6000600980549050905090565b61099361098d61146d565b826116ca565b6109d2576040517f08c379a00000000000000000000000000000000000000000000000000000000081526004016109c990613450565b60405180910390fd5b6109dd8383836117a8565b505050565b60006109ed83610c0e565b8210610a2e576040517f08c379a0000000000000000000000000000000000000000000000000000000008152600401610a25906131f0565b60405180910390fd5b600760008473ffffffffffffffffffffffffffffffffffffffff1673ffffffffffffffffffffffffffffffffffffffff168152602001908152602001600020600083815260200190815260200160002054905092915050565b610aa283838360405180602001604052806000815250610f8b565b505050565b6000610ab1610975565b8210610af2576040517f08c379a0000000000000000000000000000000000000000000000000000000008152600401610ae990613470565b60405180910390fd5b60098281548110610b2c577f4e487b7100000000000000000000000000000000000000000000000000000000600052603260045260246000fd5b90600052602060002001549050919050565b6000806002600084815260200190815260200160002060009054906101000a900473ffffffffffffffffffffffffffffffffffffffff169050600073ffffffffffffffffffffffffffffffffffffffff168173ffffffffffffffffffffffffffffffffffffffff161415610be7576040517f08c379a0000000000000000000000000000000000000000000000000000000008152600401610bde90613310565b60405180910390fd5b80915050919050565b600d5481565b600e6020528060005260406000206000915090505481565b60008073ffffffffffffffffffffffffffffffffffffffff168273ffffffffffffffffffffffffffffffffffffffff161415610c7f576040517f08c379a0000000000000000000000000000000000000000000000000000000008152600401610c76906132f0565b60405180910390fd5b600360008373ffffffffffffffffffffffffffffffffffffffff1673ffffffffffffffffffffffffffffffffffffffff168152602001908152602001600020549050919050565b610cce61146d565b73ffffffffffffffffffffffffffffffffffffffff16610cec610d4e565b73ffffffffffffffffffffffffffffffffffffffff1614610d42576040517f08c379a0000000000000000000000000000000000000000000000000000000008152600401610d39906133b0565b60405180910390fd5b610d4c6000611a04565b565b6000600b60009054906101000a900473ffffffffffffffffffffffffffffffffffffffff16905090565b606060018054610d87906136e6565b80601f0160208091040260200160405190810160405280929190818152602001828054610db3906136e6565b8015610e005780601f10610dd557610100808354040283529160200191610e00565b820191906000526020600020905b815481529060010190602001808311610de357829003601f168201915b5050505050905090565b610e1261146d565b73ffffffffffffffffffffffffffffffffffffffff168273ffffffffffffffffffffffffffffffffffffffff161415610e80576040517f08c379a0000000000000000000000000000000000000000000000000000000008152600401610e7790613290565b60405180910390fd5b8060056000610e8d61146d565b73ffffffffffffffffffffffffffffffffffffffff1673ffffffffffffffffffffffffffffffffffffffff16815260200190815260200160002060008473ffffffffffffffffffffffffffffffffffffffff1673ffffffffffffffffffffffffffffffffffffffff16815260200190815260200160002060006101000a81548160ff0219169083151502179055508173ffffffffffffffffffffffffffffffffffffffff16610f3a61146d565b73ffffffffffffffffffffffffffffffffffffffff167f17307eab39ab6107e8899845ad3d59bd9653f200f220920489ca2b5937696c3183604051610f7f9190613193565b60405180910390a35050565b610f9c610f9661146d565b836116ca565b610fdb576040517f08c379a0000000000000000000000000000000000000000000000000000000008152600401610fd290613450565b60405180910390fd5b610fe784848484611aca565b50505050565b600f6020528060005260406000206000915090505481565b606061101082611b26565b9050919050565b61102081610b3e565b73ffffffffffffffffffffffffffffffffffffffff163373ffffffffffffffffffffffffffffffffffffffff161461108d576040517f08c379a000000000000000000000000000000000000000000000000000000000815260040161108490613430565b60405180910390fd5b611098338383610a87565b5050565b34600d5411156110e1576040517f08c379a00000000000000000000000000000000000000000000000000000000081526004016110d8906131d0565b60405180910390fd5b60006110ed600c611475565b90506110f9600c611483565b611101610d4e565b73ffffffffffffffffffffffffffffffffffffffff166108fc349081150290604051600060405180830381858888f19350505050158015611146573d6000803e3d6000fd5b5034600e60003373ffffffffffffffffffffffffffffffffffffffff1673ffffffffffffffffffffffffffffffffffffffff16815260200190815260200160002060008282546111969190613575565b925050819055506111a73382611499565b6111b181836114b7565b5050565b6000600560008473ffffffffffffffffffffffffffffffffffffffff1673ffffffffffffffffffffffffffffffffffffffff16815260200190815260200160002060008373ffffffffffffffffffffffffffffffffffffffff1673ffffffffffffffffffffffffffffffffffffffff16815260200190815260200160002060009054906101000a900460ff16905092915050565b611251610d4e565b73ffffffffffffffffffffffffffffffffffffffff166108fc349081150290604051600060405180830381858888f19350505050158015611296573d6000803e3d6000fd5b5034600f60003373ffffffffffffffffffffffffffffffffffffffff1673ffffffffffffffffffffffffffffffffffffffff16815260200190815260200160002060008282546112e69190613575565b92505081905550565b6112f761146d565b73ffffffffffffffffffffffffffffffffffffffff16611315610d4e565b73ffffffffffffffffffffffffffffffffffffffff161461136b576040517f08c379a0000000000000000000000000000000000000000000000000000000008152600401611362906133b0565b60405180910390fd5b600073ffffffffffffffffffffffffffffffffffffffff168173ffffffffffffffffffffffffffffffffffffffff1614156113db576040517f08c379a00000000000000000000000000000000000000000000000000000000081526004016113d290613230565b60405180910390fd5b6113e481611a04565b50565b6113ef61146d565b73ffffffffffffffffffffffffffffffffffffffff1661140d610d4e565b73ffffffffffffffffffffffffffffffffffffffff1614611463576040517f08c379a000000000000000000000000000000000000000000000000000000000815260040161145a906133b0565b60405180910390fd5b80600d8190555050565b600033905090565b600081600001549050919050565b6001816000016000828254019250508190555050565b6114b3828260405180602001604052806000815250611c78565b5050565b6114c0826115a5565b6114ff576040517f08c379a00000000000000000000000000000000000000000000000000000000081526004016114f690613330565b60405180910390fd5b806006600084815260200190815260200160002090805190602001906115269291906128a3565b505050565b60007f780e9d63000000000000000000000000000000000000000000000000000000007bffffffffffffffffffffffffffffffffffffffffffffffffffffffff1916827bffffffffffffffffffffffffffffffffffffffffffffffffffffffff1916148061159e575061159d82611cd3565b5b9050919050565b60008073ffffffffffffffffffffffffffffffffffffffff166002600084815260200190815260200160002060009054906101000a900473ffffffffffffffffffffffffffffffffffffffff1673ffffffffffffffffffffffffffffffffffffffff1614159050919050565b816004600083815260200190815260200160002060006101000a81548173ffffffffffffffffffffffffffffffffffffffff021916908373ffffffffffffffffffffffffffffffffffffffff160217905550808273ffffffffffffffffffffffffffffffffffffffff1661168483610b3e565b73ffffffffffffffffffffffffffffffffffffffff167f8c5be1e5ebec7d5bd14f71427d1e84f3dd0314c0f7b2291e5b200ac8c7c3b92560405160405180910390a45050565b60006116d5826115a5565b611714576040517f08c379a000000000000000000000000000000000000000000000000000000000815260040161170b906132b0565b60405180910390fd5b600061171f83610b3e565b90508073ffffffffffffffffffffffffffffffffffffffff168473ffffffffffffffffffffffffffffffffffffffff16148061178e57508373ffffffffffffffffffffffffffffffffffffffff16611776846107d8565b73ffffffffffffffffffffffffffffffffffffffff16145b8061179f575061179e81856111b5565b5b91505092915050565b8273ffffffffffffffffffffffffffffffffffffffff166117c882610b3e565b73ffffffffffffffffffffffffffffffffffffffff161461181e576040517f08c379a0000000000000000000000000000000000000000000000000000000008152600401611815906133d0565b60405180910390fd5b600073ffffffffffffffffffffffffffffffffffffffff168273ffffffffffffffffffffffffffffffffffffffff16141561188e576040517f08c379a000000000000000000000000000000000000000000000000000000000815260040161188590613270565b60405180910390fd5b611899838383611db5565b6118a4600082611611565b6001600360008573ffffffffffffffffffffffffffffffffffffffff1673ffffffffffffffffffffffffffffffffffffffff16815260200190815260200160002060008282546118f491906135fc565b925050819055506001600360008473ffffffffffffffffffffffffffffffffffffffff1673ffffffffffffffffffffffffffffffffffffffff168152602001908152602001600020600082825461194b9190613575565b92505081905550816002600083815260200190815260200160002060006101000a81548173ffffffffffffffffffffffffffffffffffffffff021916908373ffffffffffffffffffffffffffffffffffffffff160217905550808273ffffffffffffffffffffffffffffffffffffffff168473ffffffffffffffffffffffffffffffffffffffff167fddf252ad1be2c89b69c2b068fc378daa952ba7f163c4a11628f55a4df523b3ef60405160405180910390a4505050565b6000600b60009054906101000a900473ffffffffffffffffffffffffffffffffffffffff16905081600b60006101000a81548173ffffffffffffffffffffffffffffffffffffffff021916908373ffffffffffffffffffffffffffffffffffffffff1602179055508173ffffffffffffffffffffffffffffffffffffffff168173ffffffffffffffffffffffffffffffffffffffff167f8be0079c531659141344cd1fd0a4f28419497f9722a3daafe3b4186f6b6457e060405160405180910390a35050565b611ad58484846117a8565b611ae184848484611dc5565b611b20576040517f08c379a0000000000000000000000000000000000000000000000000000000008152600401611b1790613210565b60405180910390fd5b50505050565b6060611b31826115a5565b611b70576040517f08c379a0000000000000000000000000000000000000000000000000000000008152600401611b6790613370565b60405180910390fd5b6000600660008481526020019081526020016000208054611b90906136e6565b80601f0160208091040260200160405190810160405280929190818152602001828054611bbc906136e6565b8015611c095780601f10611bde57610100808354040283529160200191611c09565b820191906000526020600020905b815481529060010190602001808311611bec57829003601f168201915b505050505090506000611c1a611f5c565b9050600081511415611c30578192505050611c73565b600082511115611c65578082604051602001611c4d929190613108565b60405160208183030381529060405292505050611c73565b611c6e84611f73565b925050505b919050565b611c82838361201a565b611c8f6000848484611dc5565b611cce576040517f08c379a0000000000000000000000000000000000000000000000000000000008152600401611cc590613210565b60405180910390fd5b505050565b60007f80ac58cd000000000000000000000000000000000000000000000000000000007bffffffffffffffffffffffffffffffffffffffffffffffffffffffff1916827bffffffffffffffffffffffffffffffffffffffffffffffffffffffff19161480611d9e57507f5b5e139f000000000000000000000000000000000000000000000000000000007bffffffffffffffffffffffffffffffffffffffffffffffffffffffff1916827bffffffffffffffffffffffffffffffffffffffffffffffffffffffff1916145b80611dae5750611dad826121e8565b5b9050919050565b611dc0838383612252565b505050565b6000611de68473ffffffffffffffffffffffffffffffffffffffff16612366565b15611f4f578373ffffffffffffffffffffffffffffffffffffffff1663150b7a02611e0f61146d565b8786866040518563ffffffff1660e01b8152600401611e319493929190613147565b602060405180830381600087803b158015611e4b57600080fd5b505af1925050508015611e7c57506040513d601f19601f82011682018060405250810190611e799190612ca3565b60015b611eff573d8060008114611eac576040519150601f19603f3d011682016040523d82523d6000602084013e611eb1565b606091505b50600081511415611ef7576040517f08c379a0000000000000000000000000000000000000000000000000000000008152600401611eee90613210565b60405180910390fd5b805181602001fd5b63150b7a0260e01b7bffffffffffffffffffffffffffffffffffffffffffffffffffffffff1916817bffffffffffffffffffffffffffffffffffffffffffffffffffffffff191614915050611f54565b600190505b949350505050565b606060405180602001604052806000815250905090565b6060611f7e826115a5565b611fbd576040517f08c379a0000000000000000000000000000000000000000000000000000000008152600401611fb4906133f0565b60405180910390fd5b6000611fc7611f5c565b90506000815111611fe75760405180602001604052806000815250612012565b80611ff184612379565b604051602001612002929190613108565b6040516020818303038152906040525b915050919050565b600073ffffffffffffffffffffffffffffffffffffffff168273ffffffffffffffffffffffffffffffffffffffff16141561208a576040517f08c379a000000000000000000000000000000000000000000000000000000000815260040161208190613350565b60405180910390fd5b612093816115a5565b156120d3576040517f08c379a00000000000000000000000000000000000000000000000000000000081526004016120ca90613250565b60405180910390fd5b6120df60008383611db5565b6001600360008473ffffffffffffffffffffffffffffffffffffffff1673ffffffffffffffffffffffffffffffffffffffff168152602001908152602001600020600082825461212f9190613575565b92505081905550816002600083815260200190815260200160002060006101000a81548173ffffffffffffffffffffffffffffffffffffffff021916908373ffffffffffffffffffffffffffffffffffffffff160217905550808273ffffffffffffffffffffffffffffffffffffffff16600073ffffffffffffffffffffffffffffffffffffffff167fddf252ad1be2c89b69c2b068fc378daa952ba7f163c4a11628f55a4df523b3ef60405160405180910390a45050565b60007f01ffc9a7000000000000000000000000000000000000000000000000000000007bffffffffffffffffffffffffffffffffffffffffffffffffffffffff1916827bffffffffffffffffffffffffffffffffffffffffffffffffffffffff1916149050919050565b61225d838383612526565b600073ffffffffffffffffffffffffffffffffffffffff168373ffffffffffffffffffffffffffffffffffffffff1614156122a05761229b8161252b565b6122df565b8173ffffffffffffffffffffffffffffffffffffffff168373ffffffffffffffffffffffffffffffffffffffff16146122de576122dd8382612574565b5b5b600073ffffffffffffffffffffffffffffffffffffffff168273ffffffffffffffffffffffffffffffffffffffff1614156123225761231d816126e1565b612361565b8273ffffffffffffffffffffffffffffffffffffffff168273ffffffffffffffffffffffffffffffffffffffff16146123605761235f8282612824565b5b5b505050565b600080823b905060008111915050919050565b606060008214156123c1576040518060400160405280600181526020017f30000000000000000000000000000000000000000000000000000000000000008152509050612521565b600082905060005b600082146123f35780806123dc90613749565b915050600a826123ec91906135cb565b91506123c9565b60008167ffffffffffffffff811115612435577f4e487b7100000000000000000000000000000000000000000000000000000000600052604160045260246000fd5b6040519080825280601f01601f1916602001820160405280156124675781602001600182028036833780820191505090505b5090505b6000851461251a5760018261248091906135fc565b9150600a8561248f9190613792565b603061249b9190613575565b60f81b8183815181106124d7577f4e487b7100000000000000000000000000000000000000000000000000000000600052603260045260246000fd5b60200101907effffffffffffffffffffffffffffffffffffffffffffffffffffffffffffff1916908160001a905350600a8561251391906135cb565b945061246b565b8093505050505b919050565b505050565b600980549050600a600083815260200190815260200160002081905550600981908060018154018082558091505060019003906000526020600020016000909190919091505550565b6000600161258184610c0e565b61258b91906135fc565b9050600060086000848152602001908152602001600020549050818114612670576000600760008673ffffffffffffffffffffffffffffffffffffffff1673ffffffffffffffffffffffffffffffffffffffff168152602001908152602001600020600084815260200190815260200160002054905080600760008773ffffffffffffffffffffffffffffffffffffffff1673ffffffffffffffffffffffffffffffffffffffff168152602001908152602001600020600084815260200190815260200160002081905550816008600083815260200190815260200160002081905550505b6008600084815260200190815260200160002060009055600760008573ffffffffffffffffffffffffffffffffffffffff1673ffffffffffffffffffffffffffffffffffffffff16815260200190815260200160002060008381526020019081526020016000206000905550505050565b600060016009805490506126f591906135fc565b90506000600a600084815260200190815260200160002054905060006009838154811061274b577f4e487b7100000000000000000000000000000000000000000000000000000000600052603260045260246000fd5b906000526020600020015490508060098381548110612793577f4e487b7100000000000000000000000000000000000000000000000000000000600052603260045260246000fd5b906000526020600020018190555081600a600083815260200190815260200160002081905550600a6000858152602001908152602001600020600090556009805480612808577f4e487b7100000000000000000000000000000000000000000000000000000000600052603160045260246000fd5b6001900381819060005260206000200160009055905550505050565b600061282f83610c0e565b905081600760008573ffffffffffffffffffffffffffffffffffffffff1673ffffffffffffffffffffffffffffffffffffffff168152602001908152602001600020600083815260200190815260200160002081905550806008600084815260200190815260200160002081905550505050565b8280546128af906136e6565b90600052602060002090601f0160209004810192826128d15760008555612918565b82601f106128ea57805160ff1916838001178555612918565b82800160010185558215612918579182015b828111156129175782518255916020019190600101906128fc565b5b5090506129259190612929565b5090565b5b8082111561294257600081600090555060010161292a565b5090565b6000612959612954846134d0565b6134ab565b90508281526020810184848401111561297157600080fd5b61297c8482856136a4565b509392505050565b600061299761299284613501565b6134ab565b9050828152602081018484840111156129af57600080fd5b6129ba8482856136a4565b509392505050565b6000813590506129d181613e76565b92915050565b6000813590506129e681613e8d565b92915050565b6000813590506129fb81613ea4565b92915050565b600081519050612a1081613ea4565b92915050565b600082601f830112612a2757600080fd5b8135612a37848260208601612946565b91505092915050565b600082601f830112612a5157600080fd5b8135612a61848260208601612984565b91505092915050565b600081359050612a7981613ebb565b92915050565b600060208284031215612a9157600080fd5b6000612a9f848285016129c2565b91505092915050565b60008060408385031215612abb57600080fd5b6000612ac9858286016129c2565b9250506020612ada858286016129c2565b9150509250929050565b600080600060608486031215612af957600080fd5b6000612b07868287016129c2565b9350506020612b18868287016129c2565b9250506040612b2986828701612a6a565b9150509250925092565b60008060008060808587031215612b4957600080fd5b6000612b57878288016129c2565b9450506020612b68878288016129c2565b9350506040612b7987828801612a6a565b925050606085013567ffffffffffffffff811115612b9657600080fd5b612ba287828801612a16565b91505092959194509250565b60008060408385031215612bc157600080fd5b6000612bcf858286016129c2565b9250506020612be0858286016129d7565b9150509250929050565b60008060408385031215612bfd57600080fd5b6000612c0b858286016129c2565b925050602083013567ffffffffffffffff811115612c2857600080fd5b612c3485828601612a40565b9150509250929050565b60008060408385031215612c5157600080fd5b6000612c5f858286016129c2565b9250506020612c7085828601612a6a565b9150509250929050565b600060208284031215612c8c57600080fd5b6000612c9a848285016129ec565b91505092915050565b600060208284031215612cb557600080fd5b6000612cc384828501612a01565b91505092915050565b600060208284031215612cde57600080fd5b600082013567ffffffffffffffff811115612cf857600080fd5b612d0484828501612a40565b91505092915050565b600060208284031215612d1f57600080fd5b6000612d2d84828501612a6a565b91505092915050565b612d3f81613630565b82525050565b612d4e81613642565b82525050565b6000612d5f82613532565b612d698185613548565b9350612d798185602086016136b3565b612d828161387f565b840191505092915050565b6000612d988261353d565b612da28185613559565b9350612db28185602086016136b3565b612dbb8161387f565b840191505092915050565b6000612dd18261353d565b612ddb818561356a565b9350612deb8185602086016136b3565b80840191505092915050565b6000612e04601483613559565b9150612e0f82613890565b602082019050919050565b6000612e27602b83613559565b9150612e32826138b9565b604082019050919050565b6000612e4a603283613559565b9150612e5582613908565b604082019050919050565b6000612e6d602683613559565b9150612e7882613957565b604082019050919050565b6000612e90601c83613559565b9150612e9b826139a6565b602082019050919050565b6000612eb3602483613559565b9150612ebe826139cf565b604082019050919050565b6000612ed6601983613559565b9150612ee182613a1e565b602082019050919050565b6000612ef9602c83613559565b9150612f0482613a47565b604082019050919050565b6000612f1c603883613559565b9150612f2782613a96565b604082019050919050565b6000612f3f602a83613559565b9150612f4a82613ae5565b604082019050919050565b6000612f62602983613559565b9150612f6d82613b34565b604082019050919050565b6000612f85602e83613559565b9150612f9082613b83565b604082019050919050565b6000612fa8602083613559565b9150612fb382613bd2565b602082019050919050565b6000612fcb603183613559565b9150612fd682613bfb565b604082019050919050565b6000612fee602c83613559565b9150612ff982613c4a565b604082019050919050565b6000613011602083613559565b915061301c82613c99565b602082019050919050565b6000613034602983613559565b915061303f82613cc2565b604082019050919050565b6000613057602f83613559565b915061306282613d11565b604082019050919050565b600061307a602183613559565b915061308582613d60565b604082019050919050565b600061309d601783613559565b91506130a882613daf565b602082019050919050565b60006130c0603183613559565b91506130cb82613dd8565b604082019050919050565b60006130e3602c83613559565b91506130ee82613e27565b604082019050919050565b6131028161369a565b82525050565b60006131148285612dc6565b91506131208284612dc6565b91508190509392505050565b60006020820190506131416000830184612d36565b92915050565b600060808201905061315c6000830187612d36565b6131696020830186612d36565b61317660408301856130f9565b81810360608301526131888184612d54565b905095945050505050565b60006020820190506131a86000830184612d45565b92915050565b600060208201905081810360008301526131c88184612d8d565b905092915050565b600060208201905081810360008301526131e981612df7565b9050919050565b6000602082019050818103600083015261320981612e1a565b9050919050565b6000602082019050818103600083015261322981612e3d565b9050919050565b6000602082019050818103600083015261324981612e60565b9050919050565b6000602082019050818103600083015261326981612e83565b9050919050565b6000602082019050818103600083015261328981612ea6565b9050919050565b600060208201905081810360008301526132a981612ec9565b9050919050565b600060208201905081810360008301526132c981612eec565b9050919050565b600060208201905081810360008301526132e981612f0f565b9050919050565b6000602082019050818103600083015261330981612f32565b9050919050565b6000602082019050818103600083015261332981612f55565b9050919050565b6000602082019050818103600083015261334981612f78565b9050919050565b6000602082019050818103600083015261336981612f9b565b9050919050565b6000602082019050818103600083015261338981612fbe565b9050919050565b600060208201905081810360008301526133a981612fe1565b9050919050565b600060208201905081810360008301526133c981613004565b9050919050565b600060208201905081810360008301526133e981613027565b9050919050565b600060208201905081810360008301526134098161304a565b9050919050565b600060208201905081810360008301526134298161306d565b9050919050565b6000602082019050818103600083015261344981613090565b9050919050565b60006020820190508181036000830152613469816130b3565b9050919050565b60006020820190508181036000830152613489816130d6565b9050919050565b60006020820190506134a560008301846130f9565b92915050565b60006134b56134c6565b90506134c18282613718565b919050565b6000604051905090565b600067ffffffffffffffff8211156134eb576134ea613850565b5b6134f48261387f565b9050602081019050919050565b600067ffffffffffffffff82111561351c5761351b613850565b5b6135258261387f565b9050602081019050919050565b600081519050919050565b600081519050919050565b600082825260208201905092915050565b600082825260208201905092915050565b600081905092915050565b60006135808261369a565b915061358b8361369a565b9250827fffffffffffffffffffffffffffffffffffffffffffffffffffffffffffffffff038211156135c0576135bf6137c3565b5b828201905092915050565b60006135d68261369a565b91506135e18361369a565b9250826135f1576135f06137f2565b5b828204905092915050565b60006136078261369a565b91506136128361369a565b925082821015613625576136246137c3565b5b828203905092915050565b600061363b8261367a565b9050919050565b60008115159050919050565b60007fffffffff0000000000000000000000000000000000000000000000000000000082169050919050565b600073ffffffffffffffffffffffffffffffffffffffff82169050919050565b6000819050919050565b82818337600083830152505050565b60005b838110156136d15780820151818401526020810190506136b6565b838111156136e0576000848401525b50505050565b600060028204905060018216806136fe57607f821691505b6020821081141561371257613711613821565b5b50919050565b6137218261387f565b810181811067ffffffffffffffff821117156137405761373f613850565b5b80604052505050565b60006137548261369a565b91507fffffffffffffffffffffffffffffffffffffffffffffffffffffffffffffffff821415613787576137866137c3565b5b600182019050919050565b600061379d8261369a565b91506137a88361369a565b9250826137b8576137b76137f2565b5b828206905092915050565b7f4e487b7100000000000000000000000000000000000000000000000000000000600052601160045260246000fd5b7f4e487b7100000000000000000000000000000000000000000000000000000000600052601260045260246000fd5b7f4e487b7100000000000000000000000000000000000000000000000000000000600052602260045260246000fd5b7f4e487b7100000000000000000000000000000000000000000000000000000000600052604160045260246000fd5b6000601f19601f8301169050919050565b7f4e6f7420656e6f756768204345542073656e742e000000000000000000000000600082015250565b7f455243373231456e756d657261626c653a206f776e657220696e646578206f7560008201527f74206f6620626f756e6473000000000000000000000000000000000000000000602082015250565b7f4552433732313a207472616e7366657220746f206e6f6e20455243373231526560008201527f63656976657220696d706c656d656e7465720000000000000000000000000000602082015250565b7f4f776e61626c653a206e6577206f776e657220697320746865207a65726f206160008201527f6464726573730000000000000000000000000000000000000000000000000000602082015250565b7f4552433732313a20746f6b656e20616c7265616479206d696e74656400000000600082015250565b7f4552433732313a207472616e7366657220746f20746865207a65726f2061646460008201527f7265737300000000000000000000000000000000000000000000000000000000602082015250565b7f4552433732313a20617070726f766520746f2063616c6c657200000000000000600082015250565b7f4552433732313a206f70657261746f7220717565727920666f72206e6f6e657860008201527f697374656e7420746f6b656e0000000000000000000000000000000000000000602082015250565b7f4552433732313a20617070726f76652063616c6c6572206973206e6f74206f7760008201527f6e6572206e6f7220617070726f76656420666f7220616c6c0000000000000000602082015250565b7f4552433732313a2062616c616e636520717565727920666f7220746865207a6560008201527f726f206164647265737300000000000000000000000000000000000000000000602082015250565b7f4552433732313a206f776e657220717565727920666f72206e6f6e657869737460008201527f656e7420746f6b656e0000000000000000000000000000000000000000000000602082015250565b7f45524337323155524953746f726167653a2055524920736574206f66206e6f6e60008201527f6578697374656e7420746f6b656e000000000000000000000000000000000000602082015250565b7f4552433732313a206d696e7420746f20746865207a65726f2061646472657373600082015250565b7f45524337323155524953746f726167653a2055524920717565727920666f722060008201527f6e6f6e6578697374656e7420746f6b656e000000000000000000000000000000602082015250565b7f4552433732313a20617070726f76656420717565727920666f72206e6f6e657860008201527f697374656e7420746f6b656e0000000000000000000000000000000000000000602082015250565b7f4f776e61626c653a2063616c6c6572206973206e6f7420746865206f776e6572600082015250565b7f4552433732313a207472616e73666572206f6620746f6b656e2074686174206960008201527f73206e6f74206f776e0000000000000000000000000000000000000000000000602082015250565b7f4552433732314d657461646174613a2055524920717565727920666f72206e6f60008201527f6e6578697374656e7420746f6b656e0000000000000000000000000000000000602082015250565b7f4552433732313a20617070726f76616c20746f2063757272656e74206f776e6560008201527f7200000000000000000000000000000000000000000000000000000000000000602082015250565b7f4e6f74206f776e6572206f66207468697320746f6b656e000000000000000000600082015250565b7f4552433732313a207472616e736665722063616c6c6572206973206e6f74206f60008201527f776e6572206e6f7220617070726f766564000000000000000000000000000000602082015250565b7f455243373231456e756d657261626c653a20676c6f62616c20696e646578206f60008201527f7574206f6620626f756e64730000000000000000000000000000000000000000602082015250565b613e7f81613630565b8114613e8a57600080fd5b50565b613e9681613642565b8114613ea157600080fd5b50565b613ead8161364e565b8114613eb857600080fd5b50565b613ec48161369a565b8114613ecf57600080fd5b5056fea2646970667358221220aed81148f20460628175510cd8be01e07190b3b489927072cf6bd0207b85c1cf64736f6c63430008040033",
  "linkReferences": {},
  "deployedLinkReferences": {}
}