{
  "_format": "hh-sol-artifact-1",
  "contractName": "Minter4",
  "sourceName": "contracts/Minter4.sol",
  "abi": [
    {
      "inputs": [],
      "stateMutability": "nonpayable",
      "type": "constructor"
    },
    {
      "anonymous": false,
      "inputs": [
        {
          "indexed": true,
          "internalType": "address",
          "name": "owner",
          "type": "address"
        },
        {
          "indexed": true,
          "internalType": "address",
          "name": "approved",
          "type": "address"
        },
        {
          "indexed": true,
          "internalType": "uint256",
          "name": "tokenId",
          "type": "uint256"
        }
      ],
      "name": "Approval",
      "type": "event"
    },
    {
      "anonymous": false,
      "inputs": [
        {
          "indexed": true,
          "internalType": "address",
          "name": "owner",
          "type": "address"
        },
        {
          "indexed": true,
          "internalType": "address",
          "name": "operator",
          "type": "address"
        },
        {
          "indexed": false,
          "internalType": "bool",
          "name": "approved",
          "type": "bool"
        }
      ],
      "name": "ApprovalForAll",
      "type": "event"
    },
    {
      "anonymous": false,
      "inputs": [
        {
          "indexed": true,
          "internalType": "address",
          "name": "previousOwner",
          "type": "address"
        },
        {
          "indexed": true,
          "internalType": "address",
          "name": "newOwner",
          "type": "address"
        }
      ],
      "name": "OwnershipTransferred",
      "type": "event"
    },
    {
      "anonymous": false,
      "inputs": [
        {
          "indexed": true,
          "internalType": "address",
          "name": "from",
          "type": "address"
        },
        {
          "indexed": true,
          "internalType": "address",
          "name": "to",
          "type": "address"
        },
        {
          "indexed": true,
          "internalType": "uint256",
          "name": "tokenId",
          "type": "uint256"
        }
      ],
      "name": "Transfer",
      "type": "event"
    },
    {
      "inputs": [
        {
          "internalType": "address",
          "name": "to",
          "type": "address"
        },
        {
          "internalType": "uint256",
          "name": "tokenId",
          "type": "uint256"
        }
      ],
      "name": "approve",
      "outputs": [],
      "stateMutability": "nonpayable",
      "type": "function"
    },
    {
      "inputs": [
        {
          "internalType": "address",
          "name": "owner",
          "type": "address"
        }
      ],
      "name": "balanceOf",
      "outputs": [
        {
          "internalType": "uint256",
          "name": "",
          "type": "uint256"
        }
      ],
      "stateMutability": "view",
      "type": "function"
    },
    {
      "inputs": [
        {
          "internalType": "uint256",
          "name": "tokenId",
          "type": "uint256"
        }
      ],
      "name": "getApproved",
      "outputs": [
        {
          "internalType": "address",
          "name": "",
          "type": "address"
        }
      ],
      "stateMutability": "view",
      "type": "function"
    },
    {
      "inputs": [
        {
          "internalType": "address",
          "name": "addr",
          "type": "address"
        }
      ],
      "name": "getTokensByAddress",
      "outputs": [],
      "stateMutability": "nonpayable",
      "type": "function"
    },
    {
      "inputs": [
        {
          "internalType": "address",
          "name": "owner",
          "type": "address"
        },
        {
          "internalType": "address",
          "name": "operator",
          "type": "address"
        }
      ],
      "name": "isApprovedForAll",
      "outputs": [
        {
          "internalType": "bool",
          "name": "",
          "type": "bool"
        }
      ],
      "stateMutability": "view",
      "type": "function"
    },
    {
      "inputs": [
        {
          "internalType": "string",
          "name": "tokenURI",
          "type": "string"
        }
      ],
      "name": "mint",
      "outputs": [],
      "stateMutability": "payable",
      "type": "function"
    },
    {
      "inputs": [],
      "name": "mintPrice",
      "outputs": [
        {
          "internalType": "uint256",
          "name": "",
          "type": "uint256"
        }
      ],
      "stateMutability": "view",
      "type": "function"
    },
    {
      "inputs": [
        {
          "internalType": "address",
          "name": "to",
          "type": "address"
        },
        {
          "internalType": "string",
          "name": "tokenURI",
          "type": "string"
        }
      ],
      "name": "mintTo",
      "outputs": [],
      "stateMutability": "nonpayable",
      "type": "function"
    },
    {
      "inputs": [],
      "name": "name",
      "outputs": [
        {
          "internalType": "string",
          "name": "",
          "type": "string"
        }
      ],
      "stateMutability": "view",
      "type": "function"
    },
    {
      "inputs": [],
      "name": "owner",
      "outputs": [
        {
          "internalType": "address",
          "name": "",
          "type": "address"
        }
      ],
      "stateMutability": "view",
      "type": "function"
    },
    {
      "inputs": [
        {
          "internalType": "uint256",
          "name": "tokenId",
          "type": "uint256"
        }
      ],
      "name": "ownerOf",
      "outputs": [
        {
          "internalType": "address",
          "name": "",
          "type": "address"
        }
      ],
      "stateMutability": "view",
      "type": "function"
    },
    {
      "inputs": [],
      "name": "renounceOwnership",
      "outputs": [],
      "stateMutability": "nonpayable",
      "type": "function"
    },
    {
      "inputs": [
        {
          "internalType": "address",
          "name": "from",
          "type": "address"
        },
        {
          "internalType": "address",
          "name": "to",
          "type": "address"
        },
        {
          "internalType": "uint256",
          "name": "tokenId",
          "type": "uint256"
        }
      ],
      "name": "safeTransferFrom",
      "outputs": [],
      "stateMutability": "nonpayable",
      "type": "function"
    },
    {
      "inputs": [
        {
          "internalType": "address",
          "name": "from",
          "type": "address"
        },
        {
          "internalType": "address",
          "name": "to",
          "type": "address"
        },
        {
          "internalType": "uint256",
          "name": "tokenId",
          "type": "uint256"
        },
        {
          "internalType": "bytes",
          "name": "_data",
          "type": "bytes"
        }
      ],
      "name": "safeTransferFrom",
      "outputs": [],
      "stateMutability": "nonpayable",
      "type": "function"
    },
    {
      "inputs": [
        {
          "internalType": "address",
          "name": "operator",
          "type": "address"
        },
        {
          "internalType": "bool",
          "name": "approved",
          "type": "bool"
        }
      ],
      "name": "setApprovalForAll",
      "outputs": [],
      "stateMutability": "nonpayable",
      "type": "function"
    },
    {
      "inputs": [
        {
          "internalType": "uint256",
          "name": "newMintPrice",
          "type": "uint256"
        }
      ],
      "name": "setMintPrice",
      "outputs": [],
      "stateMutability": "nonpayable",
      "type": "function"
    },
    {
      "inputs": [
        {
          "internalType": "bytes4",
          "name": "interfaceId",
          "type": "bytes4"
        }
      ],
      "name": "supportsInterface",
      "outputs": [
        {
          "internalType": "bool",
          "name": "",
          "type": "bool"
        }
      ],
      "stateMutability": "view",
      "type": "function"
    },
    {
      "inputs": [],
      "name": "symbol",
      "outputs": [
        {
          "internalType": "string",
          "name": "",
          "type": "string"
        }
      ],
      "stateMutability": "view",
      "type": "function"
    },
    {
      "inputs": [
        {
          "internalType": "uint256",
          "name": "index",
          "type": "uint256"
        }
      ],
      "name": "tokenByIndex",
      "outputs": [
        {
          "internalType": "uint256",
          "name": "",
          "type": "uint256"
        }
      ],
      "stateMutability": "view",
      "type": "function"
    },
    {
      "inputs": [
        {
          "internalType": "address",
          "name": "owner",
          "type": "address"
        },
        {
          "internalType": "uint256",
          "name": "index",
          "type": "uint256"
        }
      ],
      "name": "tokenOfOwnerByIndex",
      "outputs": [
        {
          "internalType": "uint256",
          "name": "",
          "type": "uint256"
        }
      ],
      "stateMutability": "view",
      "type": "function"
    },
    {
      "inputs": [
        {
          "internalType": "uint256",
          "name": "tokenId",
          "type": "uint256"
        }
      ],
      "name": "tokenURI",
      "outputs": [
        {
          "internalType": "string",
          "name": "",
          "type": "string"
        }
      ],
      "stateMutability": "view",
      "type": "function"
    },
    {
      "inputs": [],
      "name": "totalSupply",
      "outputs": [
        {
          "internalType": "uint256",
          "name": "",
          "type": "uint256"
        }
      ],
      "stateMutability": "view",
      "type": "function"
    },
    {
      "inputs": [
        {
          "internalType": "address",
          "name": "from",
          "type": "address"
        },
        {
          "internalType": "address",
          "name": "to",
          "type": "address"
        },
        {
          "internalType": "uint256",
          "name": "tokenId",
          "type": "uint256"
        }
      ],
      "name": "transferFrom",
      "outputs": [],
      "stateMutability": "nonpayable",
      "type": "function"
    },
    {
      "inputs": [
        {
          "internalType": "address",
          "name": "newOwner",
          "type": "address"
        }
      ],
      "name": "transferOwnership",
      "outputs": [],
      "stateMutability": "nonpayable",
      "type": "function"
    }
  ],
  "bytecode": "0x6080604052670de0b6b3a7640000600d553480156200001d57600080fd5b506040518060400160405280600781526020017f4d696e74657234000000000000000000000000000000000000000000000000008152506040518060400160405280600781526020017f4d494e54455234000000000000000000000000000000000000000000000000008152508160009080519060200190620000a2929190620001b2565b508060019080519060200190620000bb929190620001b2565b505050620000de620000d2620000e460201b60201c565b620000ec60201b60201c565b620002c7565b600033905090565b6000600b60009054906101000a900473ffffffffffffffffffffffffffffffffffffffff16905081600b60006101000a81548173ffffffffffffffffffffffffffffffffffffffff021916908373ffffffffffffffffffffffffffffffffffffffff1602179055508173ffffffffffffffffffffffffffffffffffffffff168173ffffffffffffffffffffffffffffffffffffffff167f8be0079c531659141344cd1fd0a4f28419497f9722a3daafe3b4186f6b6457e060405160405180910390a35050565b828054620001c09062000262565b90600052602060002090601f016020900481019282620001e4576000855562000230565b82601f10620001ff57805160ff191683800117855562000230565b8280016001018555821562000230579182015b828111156200022f57825182559160200191906001019062000212565b5b5090506200023f919062000243565b5090565b5b808211156200025e57600081600090555060010162000244565b5090565b600060028204905060018216806200027b57607f821691505b6020821081141562000292576200029162000298565b5b50919050565b7f4e487b7100000000000000000000000000000000000000000000000000000000600052602260045260246000fd5b613bf180620002d76000396000f3fe60806040526004361061014a5760003560e01c80636817c76c116100b6578063b88d4fde1161006f578063b88d4fde146104a1578063c87b56dd146104ca578063d85d3d2714610507578063e985e9c514610523578063f2fde38b14610560578063f4a0a528146105895761014a565b80636817c76c146103a357806370a08231146103ce578063715018a61461040b5780638da5cb5b1461042257806395d89b411461044d578063a22cb465146104785761014a565b806318160ddd1161010857806318160ddd1461026f57806323b872dd1461029a5780632f745c59146102c357806342842e0e146103005780634f6ccce7146103295780636352211e146103665761014a565b806275a3171461014f57806301ffc9a71461017857806306fdde03146101b557806307ca3645146101e0578063081812fc14610209578063095ea7b314610246575b600080fd5b34801561015b57600080fd5b506101766004803603810190610171919061293f565b6105b2565b005b34801561018457600080fd5b5061019f600480360381019061019a91906129cf565b61065f565b6040516101ac9190612ec5565b60405180910390f35b3480156101c157600080fd5b506101ca610671565b6040516101d79190612ee0565b60405180910390f35b3480156101ec57600080fd5b50610207600480360381019061020291906127d4565b610703565b005b34801561021557600080fd5b50610230600480360381019061022b9190612a62565b610706565b60405161023d9190612e5e565b60405180910390f35b34801561025257600080fd5b5061026d60048036038101906102689190612993565b61078b565b005b34801561027b57600080fd5b506102846108a3565b60405161029191906131a2565b60405180910390f35b3480156102a657600080fd5b506102c160048036038101906102bc9190612839565b6108b0565b005b3480156102cf57600080fd5b506102ea60048036038101906102e59190612993565b610910565b6040516102f791906131a2565b60405180910390f35b34801561030c57600080fd5b5061032760048036038101906103229190612839565b6109b5565b005b34801561033557600080fd5b50610350600480360381019061034b9190612a62565b6109d5565b60405161035d91906131a2565b60405180910390f35b34801561037257600080fd5b5061038d60048036038101906103889190612a62565b610a6c565b60405161039a9190612e5e565b60405180910390f35b3480156103af57600080fd5b506103b8610b1e565b6040516103c591906131a2565b60405180910390f35b3480156103da57600080fd5b506103f560048036038101906103f091906127d4565b610b24565b60405161040291906131a2565b60405180910390f35b34801561041757600080fd5b50610420610bdc565b005b34801561042e57600080fd5b50610437610c64565b6040516104449190612e5e565b60405180910390f35b34801561045957600080fd5b50610462610c8e565b60405161046f9190612ee0565b60405180910390f35b34801561048457600080fd5b5061049f600480360381019061049a9190612903565b610d20565b005b3480156104ad57600080fd5b506104c860048036038101906104c39190612888565b610ea1565b005b3480156104d657600080fd5b506104f160048036038101906104ec9190612a62565b610f03565b6040516104fe9190612ee0565b60405180910390f35b610521600480360381019061051c9190612a21565b610f15565b005b34801561052f57600080fd5b5061054a600480360381019061054591906127fd565b610f8a565b6040516105579190612ec5565b60405180910390f35b34801561056c57600080fd5b50610587600480360381019061058291906127d4565b61101e565b005b34801561059557600080fd5b506105b060048036038101906105ab9190612a62565b611116565b005b6105ba61119c565b73ffffffffffffffffffffffffffffffffffffffff166105d8610c64565b73ffffffffffffffffffffffffffffffffffffffff161461062e576040517f08c379a0000000000000000000000000000000000000000000000000000000008152600401610625906130e2565b60405180910390fd5b600061063a600c6111a4565b9050610646600c6111b2565b61065083826111c8565b61065a81836111e6565b505050565b600061066a8261125a565b9050919050565b606060008054610680906133f8565b80601f01602080910402602001604051908101604052809291908181526020018280546106ac906133f8565b80156106f95780601f106106ce576101008083540402835291602001916106f9565b820191906000526020600020905b8154815290600101906020018083116106dc57829003601f168201915b5050505050905090565b50565b6000610711826112d4565b610750576040517f08c379a0000000000000000000000000000000000000000000000000000000008152600401610747906130c2565b60405180910390fd5b6004600083815260200190815260200160002060009054906101000a900473ffffffffffffffffffffffffffffffffffffffff169050919050565b600061079682610a6c565b90508073ffffffffffffffffffffffffffffffffffffffff168373ffffffffffffffffffffffffffffffffffffffff161415610807576040517f08c379a00000000000000000000000000000000000000000000000000000000081526004016107fe90613142565b60405180910390fd5b8073ffffffffffffffffffffffffffffffffffffffff1661082661119c565b73ffffffffffffffffffffffffffffffffffffffff16148061085557506108548161084f61119c565b610f8a565b5b610894576040517f08c379a000000000000000000000000000000000000000000000000000000000815260040161088b90613002565b60405180910390fd5b61089e8383611340565b505050565b6000600980549050905090565b6108c16108bb61119c565b826113f9565b610900576040517f08c379a00000000000000000000000000000000000000000000000000000000081526004016108f790613162565b60405180910390fd5b61090b8383836114d7565b505050565b600061091b83610b24565b821061095c576040517f08c379a000000000000000000000000000000000000000000000000000000000815260040161095390612f22565b60405180910390fd5b600760008473ffffffffffffffffffffffffffffffffffffffff1673ffffffffffffffffffffffffffffffffffffffff168152602001908152602001600020600083815260200190815260200160002054905092915050565b6109d083838360405180602001604052806000815250610ea1565b505050565b60006109df6108a3565b8210610a20576040517f08c379a0000000000000000000000000000000000000000000000000000000008152600401610a1790613182565b60405180910390fd5b60098281548110610a5a577f4e487b7100000000000000000000000000000000000000000000000000000000600052603260045260246000fd5b90600052602060002001549050919050565b6000806002600084815260200190815260200160002060009054906101000a900473ffffffffffffffffffffffffffffffffffffffff169050600073ffffffffffffffffffffffffffffffffffffffff168173ffffffffffffffffffffffffffffffffffffffff161415610b15576040517f08c379a0000000000000000000000000000000000000000000000000000000008152600401610b0c90613042565b60405180910390fd5b80915050919050565b600d5481565b60008073ffffffffffffffffffffffffffffffffffffffff168273ffffffffffffffffffffffffffffffffffffffff161415610b95576040517f08c379a0000000000000000000000000000000000000000000000000000000008152600401610b8c90613022565b60405180910390fd5b600360008373ffffffffffffffffffffffffffffffffffffffff1673ffffffffffffffffffffffffffffffffffffffff168152602001908152602001600020549050919050565b610be461119c565b73ffffffffffffffffffffffffffffffffffffffff16610c02610c64565b73ffffffffffffffffffffffffffffffffffffffff1614610c58576040517f08c379a0000000000000000000000000000000000000000000000000000000008152600401610c4f906130e2565b60405180910390fd5b610c626000611733565b565b6000600b60009054906101000a900473ffffffffffffffffffffffffffffffffffffffff16905090565b606060018054610c9d906133f8565b80601f0160208091040260200160405190810160405280929190818152602001828054610cc9906133f8565b8015610d165780601f10610ceb57610100808354040283529160200191610d16565b820191906000526020600020905b815481529060010190602001808311610cf957829003601f168201915b5050505050905090565b610d2861119c565b73ffffffffffffffffffffffffffffffffffffffff168273ffffffffffffffffffffffffffffffffffffffff161415610d96576040517f08c379a0000000000000000000000000000000000000000000000000000000008152600401610d8d90612fc2565b60405180910390fd5b8060056000610da361119c565b73ffffffffffffffffffffffffffffffffffffffff1673ffffffffffffffffffffffffffffffffffffffff16815260200190815260200160002060008473ffffffffffffffffffffffffffffffffffffffff1673ffffffffffffffffffffffffffffffffffffffff16815260200190815260200160002060006101000a81548160ff0219169083151502179055508173ffffffffffffffffffffffffffffffffffffffff16610e5061119c565b73ffffffffffffffffffffffffffffffffffffffff167f17307eab39ab6107e8899845ad3d59bd9653f200f220920489ca2b5937696c3183604051610e959190612ec5565b60405180910390a35050565b610eb2610eac61119c565b836113f9565b610ef1576040517f08c379a0000000000000000000000000000000000000000000000000000000008152600401610ee890613162565b60405180910390fd5b610efd848484846117f9565b50505050565b6060610f0e82611855565b9050919050565b34600d541115610f5a576040517f08c379a0000000000000000000000000000000000000000000000000000000008152600401610f5190612f02565b60405180910390fd5b6000610f66600c6111a4565b9050610f72600c6111b2565b610f7c33826111c8565b610f8681836111e6565b5050565b6000600560008473ffffffffffffffffffffffffffffffffffffffff1673ffffffffffffffffffffffffffffffffffffffff16815260200190815260200160002060008373ffffffffffffffffffffffffffffffffffffffff1673ffffffffffffffffffffffffffffffffffffffff16815260200190815260200160002060009054906101000a900460ff16905092915050565b61102661119c565b73ffffffffffffffffffffffffffffffffffffffff16611044610c64565b73ffffffffffffffffffffffffffffffffffffffff161461109a576040517f08c379a0000000000000000000000000000000000000000000000000000000008152600401611091906130e2565b60405180910390fd5b600073ffffffffffffffffffffffffffffffffffffffff168173ffffffffffffffffffffffffffffffffffffffff16141561110a576040517f08c379a000000000000000000000000000000000000000000000000000000000815260040161110190612f62565b60405180910390fd5b61111381611733565b50565b61111e61119c565b73ffffffffffffffffffffffffffffffffffffffff1661113c610c64565b73ffffffffffffffffffffffffffffffffffffffff1614611192576040517f08c379a0000000000000000000000000000000000000000000000000000000008152600401611189906130e2565b60405180910390fd5b80600d8190555050565b600033905090565b600081600001549050919050565b6001816000016000828254019250508190555050565b6111e28282604051806020016040528060008152506119a7565b5050565b6111ef826112d4565b61122e576040517f08c379a000000000000000000000000000000000000000000000000000000000815260040161122590613062565b60405180910390fd5b806006600084815260200190815260200160002090805190602001906112559291906125f8565b505050565b60007f780e9d63000000000000000000000000000000000000000000000000000000007bffffffffffffffffffffffffffffffffffffffffffffffffffffffff1916827bffffffffffffffffffffffffffffffffffffffffffffffffffffffff191614806112cd57506112cc82611a02565b5b9050919050565b60008073ffffffffffffffffffffffffffffffffffffffff166002600084815260200190815260200160002060009054906101000a900473ffffffffffffffffffffffffffffffffffffffff1673ffffffffffffffffffffffffffffffffffffffff1614159050919050565b816004600083815260200190815260200160002060006101000a81548173ffffffffffffffffffffffffffffffffffffffff021916908373ffffffffffffffffffffffffffffffffffffffff160217905550808273ffffffffffffffffffffffffffffffffffffffff166113b383610a6c565b73ffffffffffffffffffffffffffffffffffffffff167f8c5be1e5ebec7d5bd14f71427d1e84f3dd0314c0f7b2291e5b200ac8c7c3b92560405160405180910390a45050565b6000611404826112d4565b611443576040517f08c379a000000000000000000000000000000000000000000000000000000000815260040161143a90612fe2565b60405180910390fd5b600061144e83610a6c565b90508073ffffffffffffffffffffffffffffffffffffffff168473ffffffffffffffffffffffffffffffffffffffff1614806114bd57508373ffffffffffffffffffffffffffffffffffffffff166114a584610706565b73ffffffffffffffffffffffffffffffffffffffff16145b806114ce57506114cd8185610f8a565b5b91505092915050565b8273ffffffffffffffffffffffffffffffffffffffff166114f782610a6c565b73ffffffffffffffffffffffffffffffffffffffff161461154d576040517f08c379a000000000000000000000000000000000000000000000000000000000815260040161154490613102565b60405180910390fd5b600073ffffffffffffffffffffffffffffffffffffffff168273ffffffffffffffffffffffffffffffffffffffff1614156115bd576040517f08c379a00000000000000000000000000000000000000000000000000000000081526004016115b490612fa2565b60405180910390fd5b6115c8838383611ae4565b6115d3600082611340565b6001600360008573ffffffffffffffffffffffffffffffffffffffff1673ffffffffffffffffffffffffffffffffffffffff1681526020019081526020016000206000828254611623919061330e565b925050819055506001600360008473ffffffffffffffffffffffffffffffffffffffff1673ffffffffffffffffffffffffffffffffffffffff168152602001908152602001600020600082825461167a9190613287565b92505081905550816002600083815260200190815260200160002060006101000a81548173ffffffffffffffffffffffffffffffffffffffff021916908373ffffffffffffffffffffffffffffffffffffffff160217905550808273ffffffffffffffffffffffffffffffffffffffff168473ffffffffffffffffffffffffffffffffffffffff167fddf252ad1be2c89b69c2b068fc378daa952ba7f163c4a11628f55a4df523b3ef60405160405180910390a4505050565b6000600b60009054906101000a900473ffffffffffffffffffffffffffffffffffffffff16905081600b60006101000a81548173ffffffffffffffffffffffffffffffffffffffff021916908373ffffffffffffffffffffffffffffffffffffffff1602179055508173ffffffffffffffffffffffffffffffffffffffff168173ffffffffffffffffffffffffffffffffffffffff167f8be0079c531659141344cd1fd0a4f28419497f9722a3daafe3b4186f6b6457e060405160405180910390a35050565b6118048484846114d7565b61181084848484611af4565b61184f576040517f08c379a000000000000000000000000000000000000000000000000000000000815260040161184690612f42565b60405180910390fd5b50505050565b6060611860826112d4565b61189f576040517f08c379a0000000000000000000000000000000000000000000000000000000008152600401611896906130a2565b60405180910390fd5b60006006600084815260200190815260200160002080546118bf906133f8565b80601f01602080910402602001604051908101604052809291908181526020018280546118eb906133f8565b80156119385780601f1061190d57610100808354040283529160200191611938565b820191906000526020600020905b81548152906001019060200180831161191b57829003601f168201915b505050505090506000611949611c8b565b905060008151141561195f5781925050506119a2565b60008251111561199457808260405160200161197c929190612e3a565b604051602081830303815290604052925050506119a2565b61199d84611cc8565b925050505b919050565b6119b18383611d6f565b6119be6000848484611af4565b6119fd576040517f08c379a00000000000000000000000000000000000000000000000000000000081526004016119f490612f42565b60405180910390fd5b505050565b60007f80ac58cd000000000000000000000000000000000000000000000000000000007bffffffffffffffffffffffffffffffffffffffffffffffffffffffff1916827bffffffffffffffffffffffffffffffffffffffffffffffffffffffff19161480611acd57507f5b5e139f000000000000000000000000000000000000000000000000000000007bffffffffffffffffffffffffffffffffffffffffffffffffffffffff1916827bffffffffffffffffffffffffffffffffffffffffffffffffffffffff1916145b80611add5750611adc82611f3d565b5b9050919050565b611aef838383611fa7565b505050565b6000611b158473ffffffffffffffffffffffffffffffffffffffff166120bb565b15611c7e578373ffffffffffffffffffffffffffffffffffffffff1663150b7a02611b3e61119c565b8786866040518563ffffffff1660e01b8152600401611b609493929190612e79565b602060405180830381600087803b158015611b7a57600080fd5b505af1925050508015611bab57506040513d601f19601f82011682018060405250810190611ba891906129f8565b60015b611c2e573d8060008114611bdb576040519150601f19603f3d011682016040523d82523d6000602084013e611be0565b606091505b50600081511415611c26576040517f08c379a0000000000000000000000000000000000000000000000000000000008152600401611c1d90612f42565b60405180910390fd5b805181602001fd5b63150b7a0260e01b7bffffffffffffffffffffffffffffffffffffffffffffffffffffffff1916817bffffffffffffffffffffffffffffffffffffffffffffffffffffffff191614915050611c83565b600190505b949350505050565b60606040518060400160405280601881526020017f68747470733a2f2f6578616d706c652e636f6d2f6e66742f0000000000000000815250905090565b6060611cd3826112d4565b611d12576040517f08c379a0000000000000000000000000000000000000000000000000000000008152600401611d0990613122565b60405180910390fd5b6000611d1c611c8b565b90506000815111611d3c5760405180602001604052806000815250611d67565b80611d46846120ce565b604051602001611d57929190612e3a565b6040516020818303038152906040525b915050919050565b600073ffffffffffffffffffffffffffffffffffffffff168273ffffffffffffffffffffffffffffffffffffffff161415611ddf576040517f08c379a0000000000000000000000000000000000000000000000000000000008152600401611dd690613082565b60405180910390fd5b611de8816112d4565b15611e28576040517f08c379a0000000000000000000000000000000000000000000000000000000008152600401611e1f90612f82565b60405180910390fd5b611e3460008383611ae4565b6001600360008473ffffffffffffffffffffffffffffffffffffffff1673ffffffffffffffffffffffffffffffffffffffff1681526020019081526020016000206000828254611e849190613287565b92505081905550816002600083815260200190815260200160002060006101000a81548173ffffffffffffffffffffffffffffffffffffffff021916908373ffffffffffffffffffffffffffffffffffffffff160217905550808273ffffffffffffffffffffffffffffffffffffffff16600073ffffffffffffffffffffffffffffffffffffffff167fddf252ad1be2c89b69c2b068fc378daa952ba7f163c4a11628f55a4df523b3ef60405160405180910390a45050565b60007f01ffc9a7000000000000000000000000000000000000000000000000000000007bffffffffffffffffffffffffffffffffffffffffffffffffffffffff1916827bffffffffffffffffffffffffffffffffffffffffffffffffffffffff1916149050919050565b611fb283838361227b565b600073ffffffffffffffffffffffffffffffffffffffff168373ffffffffffffffffffffffffffffffffffffffff161415611ff557611ff081612280565b612034565b8173ffffffffffffffffffffffffffffffffffffffff168373ffffffffffffffffffffffffffffffffffffffff16146120335761203283826122c9565b5b5b600073ffffffffffffffffffffffffffffffffffffffff168273ffffffffffffffffffffffffffffffffffffffff1614156120775761207281612436565b6120b6565b8273ffffffffffffffffffffffffffffffffffffffff168273ffffffffffffffffffffffffffffffffffffffff16146120b5576120b48282612579565b5b5b505050565b600080823b905060008111915050919050565b60606000821415612116576040518060400160405280600181526020017f30000000000000000000000000000000000000000000000000000000000000008152509050612276565b600082905060005b600082146121485780806121319061345b565b915050600a8261214191906132dd565b915061211e565b60008167ffffffffffffffff81111561218a577f4e487b7100000000000000000000000000000000000000000000000000000000600052604160045260246000fd5b6040519080825280601f01601f1916602001820160405280156121bc5781602001600182028036833780820191505090505b5090505b6000851461226f576001826121d5919061330e565b9150600a856121e491906134a4565b60306121f09190613287565b60f81b81838151811061222c577f4e487b7100000000000000000000000000000000000000000000000000000000600052603260045260246000fd5b60200101907effffffffffffffffffffffffffffffffffffffffffffffffffffffffffffff1916908160001a905350600a8561226891906132dd565b94506121c0565b8093505050505b919050565b505050565b600980549050600a600083815260200190815260200160002081905550600981908060018154018082558091505060019003906000526020600020016000909190919091505550565b600060016122d684610b24565b6122e0919061330e565b90506000600860008481526020019081526020016000205490508181146123c5576000600760008673ffffffffffffffffffffffffffffffffffffffff1673ffffffffffffffffffffffffffffffffffffffff168152602001908152602001600020600084815260200190815260200160002054905080600760008773ffffffffffffffffffffffffffffffffffffffff1673ffffffffffffffffffffffffffffffffffffffff168152602001908152602001600020600084815260200190815260200160002081905550816008600083815260200190815260200160002081905550505b6008600084815260200190815260200160002060009055600760008573ffffffffffffffffffffffffffffffffffffffff1673ffffffffffffffffffffffffffffffffffffffff16815260200190815260200160002060008381526020019081526020016000206000905550505050565b6000600160098054905061244a919061330e565b90506000600a60008481526020019081526020016000205490506000600983815481106124a0577f4e487b7100000000000000000000000000000000000000000000000000000000600052603260045260246000fd5b9060005260206000200154905080600983815481106124e8577f4e487b7100000000000000000000000000000000000000000000000000000000600052603260045260246000fd5b906000526020600020018190555081600a600083815260200190815260200160002081905550600a600085815260200190815260200160002060009055600980548061255d577f4e487b7100000000000000000000000000000000000000000000000000000000600052603160045260246000fd5b6001900381819060005260206000200160009055905550505050565b600061258483610b24565b905081600760008573ffffffffffffffffffffffffffffffffffffffff1673ffffffffffffffffffffffffffffffffffffffff168152602001908152602001600020600083815260200190815260200160002081905550806008600084815260200190815260200160002081905550505050565b828054612604906133f8565b90600052602060002090601f016020900481019282612626576000855561266d565b82601f1061263f57805160ff191683800117855561266d565b8280016001018555821561266d579182015b8281111561266c578251825591602001919060010190612651565b5b50905061267a919061267e565b5090565b5b8082111561269757600081600090555060010161267f565b5090565b60006126ae6126a9846131e2565b6131bd565b9050828152602081018484840111156126c657600080fd5b6126d18482856133b6565b509392505050565b60006126ec6126e784613213565b6131bd565b90508281526020810184848401111561270457600080fd5b61270f8482856133b6565b509392505050565b60008135905061272681613b5f565b92915050565b60008135905061273b81613b76565b92915050565b60008135905061275081613b8d565b92915050565b60008151905061276581613b8d565b92915050565b600082601f83011261277c57600080fd5b813561278c84826020860161269b565b91505092915050565b600082601f8301126127a657600080fd5b81356127b68482602086016126d9565b91505092915050565b6000813590506127ce81613ba4565b92915050565b6000602082840312156127e657600080fd5b60006127f484828501612717565b91505092915050565b6000806040838503121561281057600080fd5b600061281e85828601612717565b925050602061282f85828601612717565b9150509250929050565b60008060006060848603121561284e57600080fd5b600061285c86828701612717565b935050602061286d86828701612717565b925050604061287e868287016127bf565b9150509250925092565b6000806000806080858703121561289e57600080fd5b60006128ac87828801612717565b94505060206128bd87828801612717565b93505060406128ce878288016127bf565b925050606085013567ffffffffffffffff8111156128eb57600080fd5b6128f78782880161276b565b91505092959194509250565b6000806040838503121561291657600080fd5b600061292485828601612717565b92505060206129358582860161272c565b9150509250929050565b6000806040838503121561295257600080fd5b600061296085828601612717565b925050602083013567ffffffffffffffff81111561297d57600080fd5b61298985828601612795565b9150509250929050565b600080604083850312156129a657600080fd5b60006129b485828601612717565b92505060206129c5858286016127bf565b9150509250929050565b6000602082840312156129e157600080fd5b60006129ef84828501612741565b91505092915050565b600060208284031215612a0a57600080fd5b6000612a1884828501612756565b91505092915050565b600060208284031215612a3357600080fd5b600082013567ffffffffffffffff811115612a4d57600080fd5b612a5984828501612795565b91505092915050565b600060208284031215612a7457600080fd5b6000612a82848285016127bf565b91505092915050565b612a9481613342565b82525050565b612aa381613354565b82525050565b6000612ab482613244565b612abe818561325a565b9350612ace8185602086016133c5565b612ad781613591565b840191505092915050565b6000612aed8261324f565b612af7818561326b565b9350612b078185602086016133c5565b612b1081613591565b840191505092915050565b6000612b268261324f565b612b30818561327c565b9350612b408185602086016133c5565b80840191505092915050565b6000612b5960148361326b565b9150612b64826135a2565b602082019050919050565b6000612b7c602b8361326b565b9150612b87826135cb565b604082019050919050565b6000612b9f60328361326b565b9150612baa8261361a565b604082019050919050565b6000612bc260268361326b565b9150612bcd82613669565b604082019050919050565b6000612be5601c8361326b565b9150612bf0826136b8565b602082019050919050565b6000612c0860248361326b565b9150612c13826136e1565b604082019050919050565b6000612c2b60198361326b565b9150612c3682613730565b602082019050919050565b6000612c4e602c8361326b565b9150612c5982613759565b604082019050919050565b6000612c7160388361326b565b9150612c7c826137a8565b604082019050919050565b6000612c94602a8361326b565b9150612c9f826137f7565b604082019050919050565b6000612cb760298361326b565b9150612cc282613846565b604082019050919050565b6000612cda602e8361326b565b9150612ce582613895565b604082019050919050565b6000612cfd60208361326b565b9150612d08826138e4565b602082019050919050565b6000612d2060318361326b565b9150612d2b8261390d565b604082019050919050565b6000612d43602c8361326b565b9150612d4e8261395c565b604082019050919050565b6000612d6660208361326b565b9150612d71826139ab565b602082019050919050565b6000612d8960298361326b565b9150612d94826139d4565b604082019050919050565b6000612dac602f8361326b565b9150612db782613a23565b604082019050919050565b6000612dcf60218361326b565b9150612dda82613a72565b604082019050919050565b6000612df260318361326b565b9150612dfd82613ac1565b604082019050919050565b6000612e15602c8361326b565b9150612e2082613b10565b604082019050919050565b612e34816133ac565b82525050565b6000612e468285612b1b565b9150612e528284612b1b565b91508190509392505050565b6000602082019050612e736000830184612a8b565b92915050565b6000608082019050612e8e6000830187612a8b565b612e9b6020830186612a8b565b612ea86040830185612e2b565b8181036060830152612eba8184612aa9565b905095945050505050565b6000602082019050612eda6000830184612a9a565b92915050565b60006020820190508181036000830152612efa8184612ae2565b905092915050565b60006020820190508181036000830152612f1b81612b4c565b9050919050565b60006020820190508181036000830152612f3b81612b6f565b9050919050565b60006020820190508181036000830152612f5b81612b92565b9050919050565b60006020820190508181036000830152612f7b81612bb5565b9050919050565b60006020820190508181036000830152612f9b81612bd8565b9050919050565b60006020820190508181036000830152612fbb81612bfb565b9050919050565b60006020820190508181036000830152612fdb81612c1e565b9050919050565b60006020820190508181036000830152612ffb81612c41565b9050919050565b6000602082019050818103600083015261301b81612c64565b9050919050565b6000602082019050818103600083015261303b81612c87565b9050919050565b6000602082019050818103600083015261305b81612caa565b9050919050565b6000602082019050818103600083015261307b81612ccd565b9050919050565b6000602082019050818103600083015261309b81612cf0565b9050919050565b600060208201905081810360008301526130bb81612d13565b9050919050565b600060208201905081810360008301526130db81612d36565b9050919050565b600060208201905081810360008301526130fb81612d59565b9050919050565b6000602082019050818103600083015261311b81612d7c565b9050919050565b6000602082019050818103600083015261313b81612d9f565b9050919050565b6000602082019050818103600083015261315b81612dc2565b9050919050565b6000602082019050818103600083015261317b81612de5565b9050919050565b6000602082019050818103600083015261319b81612e08565b9050919050565b60006020820190506131b76000830184612e2b565b92915050565b60006131c76131d8565b90506131d3828261342a565b919050565b6000604051905090565b600067ffffffffffffffff8211156131fd576131fc613562565b5b61320682613591565b9050602081019050919050565b600067ffffffffffffffff82111561322e5761322d613562565b5b61323782613591565b9050602081019050919050565b600081519050919050565b600081519050919050565b600082825260208201905092915050565b600082825260208201905092915050565b600081905092915050565b6000613292826133ac565b915061329d836133ac565b9250827fffffffffffffffffffffffffffffffffffffffffffffffffffffffffffffffff038211156132d2576132d16134d5565b5b828201905092915050565b60006132e8826133ac565b91506132f3836133ac565b92508261330357613302613504565b5b828204905092915050565b6000613319826133ac565b9150613324836133ac565b925082821015613337576133366134d5565b5b828203905092915050565b600061334d8261338c565b9050919050565b60008115159050919050565b60007fffffffff0000000000000000000000000000000000000000000000000000000082169050919050565b600073ffffffffffffffffffffffffffffffffffffffff82169050919050565b6000819050919050565b82818337600083830152505050565b60005b838110156133e35780820151818401526020810190506133c8565b838111156133f2576000848401525b50505050565b6000600282049050600182168061341057607f821691505b6020821081141561342457613423613533565b5b50919050565b61343382613591565b810181811067ffffffffffffffff8211171561345257613451613562565b5b80604052505050565b6000613466826133ac565b91507fffffffffffffffffffffffffffffffffffffffffffffffffffffffffffffffff821415613499576134986134d5565b5b600182019050919050565b60006134af826133ac565b91506134ba836133ac565b9250826134ca576134c9613504565b5b828206905092915050565b7f4e487b7100000000000000000000000000000000000000000000000000000000600052601160045260246000fd5b7f4e487b7100000000000000000000000000000000000000000000000000000000600052601260045260246000fd5b7f4e487b7100000000000000000000000000000000000000000000000000000000600052602260045260246000fd5b7f4e487b7100000000000000000000000000000000000000000000000000000000600052604160045260246000fd5b6000601f19601f8301169050919050565b7f4e6f7420656e6f756768204345542073656e742e000000000000000000000000600082015250565b7f455243373231456e756d657261626c653a206f776e657220696e646578206f7560008201527f74206f6620626f756e6473000000000000000000000000000000000000000000602082015250565b7f4552433732313a207472616e7366657220746f206e6f6e20455243373231526560008201527f63656976657220696d706c656d656e7465720000000000000000000000000000602082015250565b7f4f776e61626c653a206e6577206f776e657220697320746865207a65726f206160008201527f6464726573730000000000000000000000000000000000000000000000000000602082015250565b7f4552433732313a20746f6b656e20616c7265616479206d696e74656400000000600082015250565b7f4552433732313a207472616e7366657220746f20746865207a65726f2061646460008201527f7265737300000000000000000000000000000000000000000000000000000000602082015250565b7f4552433732313a20617070726f766520746f2063616c6c657200000000000000600082015250565b7f4552433732313a206f70657261746f7220717565727920666f72206e6f6e657860008201527f697374656e7420746f6b656e0000000000000000000000000000000000000000602082015250565b7f4552433732313a20617070726f76652063616c6c6572206973206e6f74206f7760008201527f6e6572206e6f7220617070726f76656420666f7220616c6c0000000000000000602082015250565b7f4552433732313a2062616c616e636520717565727920666f7220746865207a6560008201527f726f206164647265737300000000000000000000000000000000000000000000602082015250565b7f4552433732313a206f776e657220717565727920666f72206e6f6e657869737460008201527f656e7420746f6b656e0000000000000000000000000000000000000000000000602082015250565b7f45524337323155524953746f726167653a2055524920736574206f66206e6f6e60008201527f6578697374656e7420746f6b656e000000000000000000000000000000000000602082015250565b7f4552433732313a206d696e7420746f20746865207a65726f2061646472657373600082015250565b7f45524337323155524953746f726167653a2055524920717565727920666f722060008201527f6e6f6e6578697374656e7420746f6b656e000000000000000000000000000000602082015250565b7f4552433732313a20617070726f76656420717565727920666f72206e6f6e657860008201527f697374656e7420746f6b656e0000000000000000000000000000000000000000602082015250565b7f4f776e61626c653a2063616c6c6572206973206e6f7420746865206f776e6572600082015250565b7f4552433732313a207472616e73666572206f6620746f6b656e2074686174206960008201527f73206e6f74206f776e0000000000000000000000000000000000000000000000602082015250565b7f4552433732314d657461646174613a2055524920717565727920666f72206e6f60008201527f6e6578697374656e7420746f6b656e0000000000000000000000000000000000602082015250565b7f4552433732313a20617070726f76616c20746f2063757272656e74206f776e6560008201527f7200000000000000000000000000000000000000000000000000000000000000602082015250565b7f4552433732313a207472616e736665722063616c6c6572206973206e6f74206f60008201527f776e6572206e6f7220617070726f766564000000000000000000000000000000602082015250565b7f455243373231456e756d657261626c653a20676c6f62616c20696e646578206f60008201527f7574206f6620626f756e64730000000000000000000000000000000000000000602082015250565b613b6881613342565b8114613b7357600080fd5b50565b613b7f81613354565b8114613b8a57600080fd5b50565b613b9681613360565b8114613ba157600080fd5b50565b613bad816133ac565b8114613bb857600080fd5b5056fea26469706673582212202a1269d2525b3b116a7a96fb07f1ab6a883f04d26678f3734384cbb70b0cf49364736f6c63430008040033",
  "linkReferences": {},
  "deployedLinkReferences": {}
}