{
  "_format": "hh-sol-artifact-1",
  "contractName": "Minter",
  "sourceName": "contracts/Minter.sol",
  "abi": [
    {
      "inputs": [],
      "stateMutability": "nonpayable",
      "type": "constructor"
    },
    {
      "anonymous": false,
      "inputs": [
        {
          "indexed": true,
          "internalType": "address",
          "name": "owner",
          "type": "address"
        },
        {
          "indexed": true,
          "internalType": "address",
          "name": "approved",
          "type": "address"
        },
        {
          "indexed": true,
          "internalType": "uint256",
          "name": "tokenId",
          "type": "uint256"
        }
      ],
      "name": "Approval",
      "type": "event"
    },
    {
      "anonymous": false,
      "inputs": [
        {
          "indexed": true,
          "internalType": "address",
          "name": "owner",
          "type": "address"
        },
        {
          "indexed": true,
          "internalType": "address",
          "name": "operator",
          "type": "address"
        },
        {
          "indexed": false,
          "internalType": "bool",
          "name": "approved",
          "type": "bool"
        }
      ],
      "name": "ApprovalForAll",
      "type": "event"
    },
    {
      "anonymous": false,
      "inputs": [
        {
          "indexed": true,
          "internalType": "address",
          "name": "from",
          "type": "address"
        },
        {
          "indexed": true,
          "internalType": "address",
          "name": "to",
          "type": "address"
        },
        {
          "indexed": true,
          "internalType": "uint256",
          "name": "tokenId",
          "type": "uint256"
        }
      ],
      "name": "Transfer",
      "type": "event"
    },
    {
      "inputs": [],
      "name": "MAX_TOKENS",
      "outputs": [
        {
          "internalType": "uint256",
          "name": "",
          "type": "uint256"
        }
      ],
      "stateMutability": "view",
      "type": "function"
    },
    {
      "inputs": [
        {
          "internalType": "address",
          "name": "to",
          "type": "address"
        },
        {
          "internalType": "uint256",
          "name": "tokenId",
          "type": "uint256"
        }
      ],
      "name": "approve",
      "outputs": [],
      "stateMutability": "nonpayable",
      "type": "function"
    },
    {
      "inputs": [
        {
          "internalType": "address",
          "name": "owner",
          "type": "address"
        }
      ],
      "name": "balanceOf",
      "outputs": [
        {
          "internalType": "uint256",
          "name": "",
          "type": "uint256"
        }
      ],
      "stateMutability": "view",
      "type": "function"
    },
    {
      "inputs": [
        {
          "internalType": "uint256",
          "name": "tokenId",
          "type": "uint256"
        }
      ],
      "name": "getApproved",
      "outputs": [
        {
          "internalType": "address",
          "name": "",
          "type": "address"
        }
      ],
      "stateMutability": "view",
      "type": "function"
    },
    {
      "inputs": [],
      "name": "getBalance",
      "outputs": [
        {
          "internalType": "uint256",
          "name": "",
          "type": "uint256"
        }
      ],
      "stateMutability": "view",
      "type": "function"
    },
    {
      "inputs": [
        {
          "internalType": "address",
          "name": "owner",
          "type": "address"
        },
        {
          "internalType": "address",
          "name": "operator",
          "type": "address"
        }
      ],
      "name": "isApprovedForAll",
      "outputs": [
        {
          "internalType": "bool",
          "name": "",
          "type": "bool"
        }
      ],
      "stateMutability": "view",
      "type": "function"
    },
    {
      "inputs": [],
      "name": "maxMint",
      "outputs": [
        {
          "internalType": "uint256",
          "name": "",
          "type": "uint256"
        }
      ],
      "stateMutability": "view",
      "type": "function"
    },
    {
      "inputs": [
        {
          "internalType": "uint256",
          "name": "numberOfTokens",
          "type": "uint256"
        }
      ],
      "name": "mint",
      "outputs": [],
      "stateMutability": "payable",
      "type": "function"
    },
    {
      "inputs": [],
      "name": "mintPrice",
      "outputs": [
        {
          "internalType": "uint256",
          "name": "",
          "type": "uint256"
        }
      ],
      "stateMutability": "view",
      "type": "function"
    },
    {
      "inputs": [],
      "name": "name",
      "outputs": [
        {
          "internalType": "string",
          "name": "",
          "type": "string"
        }
      ],
      "stateMutability": "view",
      "type": "function"
    },
    {
      "inputs": [
        {
          "internalType": "uint256",
          "name": "tokenId",
          "type": "uint256"
        }
      ],
      "name": "ownerOf",
      "outputs": [
        {
          "internalType": "address",
          "name": "",
          "type": "address"
        }
      ],
      "stateMutability": "view",
      "type": "function"
    },
    {
      "inputs": [
        {
          "internalType": "address",
          "name": "from",
          "type": "address"
        },
        {
          "internalType": "address",
          "name": "to",
          "type": "address"
        },
        {
          "internalType": "uint256",
          "name": "tokenId",
          "type": "uint256"
        }
      ],
      "name": "safeTransferFrom",
      "outputs": [],
      "stateMutability": "nonpayable",
      "type": "function"
    },
    {
      "inputs": [
        {
          "internalType": "address",
          "name": "from",
          "type": "address"
        },
        {
          "internalType": "address",
          "name": "to",
          "type": "address"
        },
        {
          "internalType": "uint256",
          "name": "tokenId",
          "type": "uint256"
        },
        {
          "internalType": "bytes",
          "name": "_data",
          "type": "bytes"
        }
      ],
      "name": "safeTransferFrom",
      "outputs": [],
      "stateMutability": "nonpayable",
      "type": "function"
    },
    {
      "inputs": [
        {
          "internalType": "address",
          "name": "operator",
          "type": "address"
        },
        {
          "internalType": "bool",
          "name": "approved",
          "type": "bool"
        }
      ],
      "name": "setApprovalForAll",
      "outputs": [],
      "stateMutability": "nonpayable",
      "type": "function"
    },
    {
      "inputs": [
        {
          "internalType": "bytes4",
          "name": "interfaceId",
          "type": "bytes4"
        }
      ],
      "name": "supportsInterface",
      "outputs": [
        {
          "internalType": "bool",
          "name": "",
          "type": "bool"
        }
      ],
      "stateMutability": "view",
      "type": "function"
    },
    {
      "inputs": [],
      "name": "symbol",
      "outputs": [
        {
          "internalType": "string",
          "name": "",
          "type": "string"
        }
      ],
      "stateMutability": "view",
      "type": "function"
    },
    {
      "inputs": [
        {
          "internalType": "uint256",
          "name": "index",
          "type": "uint256"
        }
      ],
      "name": "tokenByIndex",
      "outputs": [
        {
          "internalType": "uint256",
          "name": "",
          "type": "uint256"
        }
      ],
      "stateMutability": "view",
      "type": "function"
    },
    {
      "inputs": [
        {
          "internalType": "address",
          "name": "owner",
          "type": "address"
        },
        {
          "internalType": "uint256",
          "name": "index",
          "type": "uint256"
        }
      ],
      "name": "tokenOfOwnerByIndex",
      "outputs": [
        {
          "internalType": "uint256",
          "name": "",
          "type": "uint256"
        }
      ],
      "stateMutability": "view",
      "type": "function"
    },
    {
      "inputs": [
        {
          "internalType": "uint256",
          "name": "tokenId",
          "type": "uint256"
        }
      ],
      "name": "tokenURI",
      "outputs": [
        {
          "internalType": "string",
          "name": "",
          "type": "string"
        }
      ],
      "stateMutability": "view",
      "type": "function"
    },
    {
      "inputs": [],
      "name": "totalSupply",
      "outputs": [
        {
          "internalType": "uint256",
          "name": "",
          "type": "uint256"
        }
      ],
      "stateMutability": "view",
      "type": "function"
    },
    {
      "inputs": [
        {
          "internalType": "address",
          "name": "from",
          "type": "address"
        },
        {
          "internalType": "address",
          "name": "to",
          "type": "address"
        },
        {
          "internalType": "uint256",
          "name": "tokenId",
          "type": "uint256"
        }
      ],
      "name": "transferFrom",
      "outputs": [],
      "stateMutability": "nonpayable",
      "type": "function"
    }
  ],
  "bytecode": "0x6080604052612710600a553480156200001757600080fd5b506040518060400160405280600681526020017f4d696e74657200000000000000000000000000000000000000000000000000008152506040518060400160405280600681526020017f4d494e544552000000000000000000000000000000000000000000000000000081525081600090805190602001906200009c929190620000be565b508060019080519060200190620000b5929190620000be565b505050620001d3565b828054620000cc906200016e565b90600052602060002090601f016020900481019282620000f057600085556200013c565b82601f106200010b57805160ff19168380011785556200013c565b828001600101855582156200013c579182015b828111156200013b5782518255916020019190600101906200011e565b5b5090506200014b91906200014f565b5090565b5b808211156200016a57600081600090555060010162000150565b5090565b600060028204905060018216806200018757607f821691505b602082108114156200019e576200019d620001a4565b5b50919050565b7f4e487b7100000000000000000000000000000000000000000000000000000000600052602260045260246000fd5b6134ce80620001e36000396000f3fe60806040526004361061012a5760003560e01c80636352211e116100ab578063a0712d681161006f578063a0712d681461041a578063a22cb46514610436578063b88d4fde1461045f578063c87b56dd14610488578063e985e9c5146104c5578063f47c84c5146105025761012a565b80636352211e1461031f5780636817c76c1461035c57806370a08231146103875780637501f741146103c457806395d89b41146103ef5761012a565b806318160ddd116100f257806318160ddd1461022857806323b872dd146102535780632f745c591461027c57806342842e0e146102b95780634f6ccce7146102e25761012a565b806301ffc9a71461012f57806306fdde031461016c578063081812fc14610197578063095ea7b3146101d457806312065fe0146101fd575b600080fd5b34801561013b57600080fd5b5061015660048036038101906101519190612356565b61052d565b60405161016391906127e8565b60405180910390f35b34801561017857600080fd5b506101816105a7565b60405161018e9190612803565b60405180910390f35b3480156101a357600080fd5b506101be60048036038101906101b991906123a8565b610639565b6040516101cb9190612781565b60405180910390f35b3480156101e057600080fd5b506101fb60048036038101906101f6919061231a565b6106be565b005b34801561020957600080fd5b506102126107d6565b60405161021f9190612aa5565b60405180910390f35b34801561023457600080fd5b5061023d6107de565b60405161024a9190612aa5565b60405180910390f35b34801561025f57600080fd5b5061027a60048036038101906102759190612214565b6107eb565b005b34801561028857600080fd5b506102a3600480360381019061029e919061231a565b61084b565b6040516102b09190612aa5565b60405180910390f35b3480156102c557600080fd5b506102e060048036038101906102db9190612214565b6108f0565b005b3480156102ee57600080fd5b50610309600480360381019061030491906123a8565b610910565b6040516103169190612aa5565b60405180910390f35b34801561032b57600080fd5b50610346600480360381019061034191906123a8565b6109a7565b6040516103539190612781565b60405180910390f35b34801561036857600080fd5b50610371610a59565b60405161037e9190612aa5565b60405180910390f35b34801561039357600080fd5b506103ae60048036038101906103a991906121af565b610a64565b6040516103bb9190612aa5565b60405180910390f35b3480156103d057600080fd5b506103d9610b1c565b6040516103e69190612aa5565b60405180910390f35b3480156103fb57600080fd5b50610404610b21565b6040516104119190612803565b60405180910390f35b610434600480360381019061042f91906123a8565b610bb3565b005b34801561044257600080fd5b5061045d600480360381019061045891906122de565b610d39565b005b34801561046b57600080fd5b5061048660048036038101906104819190612263565b610eba565b005b34801561049457600080fd5b506104af60048036038101906104aa91906123a8565b610f1c565b6040516104bc9190612803565b60405180910390f35b3480156104d157600080fd5b506104ec60048036038101906104e791906121d8565b610fc3565b6040516104f991906127e8565b60405180910390f35b34801561050e57600080fd5b50610517611057565b6040516105249190612aa5565b60405180910390f35b60007f780e9d63000000000000000000000000000000000000000000000000000000007bffffffffffffffffffffffffffffffffffffffffffffffffffffffff1916827bffffffffffffffffffffffffffffffffffffffffffffffffffffffff191614806105a0575061059f8261105d565b5b9050919050565b6060600080546105b690612d24565b80601f01602080910402602001604051908101604052809291908181526020018280546105e290612d24565b801561062f5780601f106106045761010080835404028352916020019161062f565b820191906000526020600020905b81548152906001019060200180831161061257829003601f168201915b5050505050905090565b60006106448261113f565b610683576040517f08c379a000000000000000000000000000000000000000000000000000000000815260040161067a90612985565b60405180910390fd5b6004600083815260200190815260200160002060009054906101000a900473ffffffffffffffffffffffffffffffffffffffff169050919050565b60006106c9826109a7565b90508073ffffffffffffffffffffffffffffffffffffffff168373ffffffffffffffffffffffffffffffffffffffff16141561073a576040517f08c379a000000000000000000000000000000000000000000000000000000000815260040161073190612a25565b60405180910390fd5b8073ffffffffffffffffffffffffffffffffffffffff166107596111ab565b73ffffffffffffffffffffffffffffffffffffffff1614806107885750610787816107826111ab565b610fc3565b5b6107c7576040517f08c379a00000000000000000000000000000000000000000000000000000000081526004016107be906128e5565b60405180910390fd5b6107d183836111b3565b505050565b600047905090565b6000600880549050905090565b6107fc6107f66111ab565b8261126c565b61083b576040517f08c379a000000000000000000000000000000000000000000000000000000000815260040161083290612a45565b60405180910390fd5b61084683838361134a565b505050565b600061085683610a64565b8210610897576040517f08c379a000000000000000000000000000000000000000000000000000000000815260040161088e90612825565b60405180910390fd5b600660008473ffffffffffffffffffffffffffffffffffffffff1673ffffffffffffffffffffffffffffffffffffffff168152602001908152602001600020600083815260200190815260200160002054905092915050565b61090b83838360405180602001604052806000815250610eba565b505050565b600061091a6107de565b821061095b576040517f08c379a000000000000000000000000000000000000000000000000000000000815260040161095290612a65565b60405180910390fd5b60088281548110610995577f4e487b7100000000000000000000000000000000000000000000000000000000600052603260045260246000fd5b90600052602060002001549050919050565b6000806002600084815260200190815260200160002060009054906101000a900473ffffffffffffffffffffffffffffffffffffffff169050600073ffffffffffffffffffffffffffffffffffffffff168173ffffffffffffffffffffffffffffffffffffffff161415610a50576040517f08c379a0000000000000000000000000000000000000000000000000000000008152600401610a4790612925565b60405180910390fd5b80915050919050565b666a94d74f43000081565b60008073ffffffffffffffffffffffffffffffffffffffff168273ffffffffffffffffffffffffffffffffffffffff161415610ad5576040517f08c379a0000000000000000000000000000000000000000000000000000000008152600401610acc90612905565b60405180910390fd5b600360008373ffffffffffffffffffffffffffffffffffffffff1673ffffffffffffffffffffffffffffffffffffffff168152602001908152602001600020549050919050565b600a81565b606060018054610b3090612d24565b80601f0160208091040260200160405190810160405280929190818152602001828054610b5c90612d24565b8015610ba95780601f10610b7e57610100808354040283529160200191610ba9565b820191906000526020600020905b815481529060010190602001808311610b8c57829003601f168201915b5050505050905090565b6000811415610bf7576040517f08c379a0000000000000000000000000000000000000000000000000000000008152600401610bee90612945565b60405180910390fd5b600a811115610c3b576040517f08c379a0000000000000000000000000000000000000000000000000000000008152600401610c32906129e5565b60405180910390fd5b600a54610c5882610c4a6107de565b6115a690919063ffffffff16565b1115610c99576040517f08c379a0000000000000000000000000000000000000000000000000000000008152600401610c9090612a85565b60405180910390fd5b34610cb482666a94d74f4300006115bc90919063ffffffff16565b1115610cf5576040517f08c379a0000000000000000000000000000000000000000000000000000000008152600401610cec90612a05565b60405180910390fd5b60005b81811015610d35576000610d0a6107de565b9050600a54811015610d2157610d2033826115d2565b5b508080610d2d90612d87565b915050610cf8565b5050565b610d416111ab565b73ffffffffffffffffffffffffffffffffffffffff168273ffffffffffffffffffffffffffffffffffffffff161415610daf576040517f08c379a0000000000000000000000000000000000000000000000000000000008152600401610da6906128a5565b60405180910390fd5b8060056000610dbc6111ab565b73ffffffffffffffffffffffffffffffffffffffff1673ffffffffffffffffffffffffffffffffffffffff16815260200190815260200160002060008473ffffffffffffffffffffffffffffffffffffffff1673ffffffffffffffffffffffffffffffffffffffff16815260200190815260200160002060006101000a81548160ff0219169083151502179055508173ffffffffffffffffffffffffffffffffffffffff16610e696111ab565b73ffffffffffffffffffffffffffffffffffffffff167f17307eab39ab6107e8899845ad3d59bd9653f200f220920489ca2b5937696c3183604051610eae91906127e8565b60405180910390a35050565b610ecb610ec56111ab565b8361126c565b610f0a576040517f08c379a0000000000000000000000000000000000000000000000000000000008152600401610f0190612a45565b60405180910390fd5b610f16848484846115f0565b50505050565b6060610f278261113f565b610f66576040517f08c379a0000000000000000000000000000000000000000000000000000000008152600401610f5d906129c5565b60405180910390fd5b6000610f7061164c565b90506000815111610f905760405180602001604052806000815250610fbb565b80610f9a84611663565b604051602001610fab92919061275d565b6040516020818303038152906040525b915050919050565b6000600560008473ffffffffffffffffffffffffffffffffffffffff1673ffffffffffffffffffffffffffffffffffffffff16815260200190815260200160002060008373ffffffffffffffffffffffffffffffffffffffff1673ffffffffffffffffffffffffffffffffffffffff16815260200190815260200160002060009054906101000a900460ff16905092915050565b600a5481565b60007f80ac58cd000000000000000000000000000000000000000000000000000000007bffffffffffffffffffffffffffffffffffffffffffffffffffffffff1916827bffffffffffffffffffffffffffffffffffffffffffffffffffffffff1916148061112857507f5b5e139f000000000000000000000000000000000000000000000000000000007bffffffffffffffffffffffffffffffffffffffffffffffffffffffff1916827bffffffffffffffffffffffffffffffffffffffffffffffffffffffff1916145b80611138575061113782611810565b5b9050919050565b60008073ffffffffffffffffffffffffffffffffffffffff166002600084815260200190815260200160002060009054906101000a900473ffffffffffffffffffffffffffffffffffffffff1673ffffffffffffffffffffffffffffffffffffffff1614159050919050565b600033905090565b816004600083815260200190815260200160002060006101000a81548173ffffffffffffffffffffffffffffffffffffffff021916908373ffffffffffffffffffffffffffffffffffffffff160217905550808273ffffffffffffffffffffffffffffffffffffffff16611226836109a7565b73ffffffffffffffffffffffffffffffffffffffff167f8c5be1e5ebec7d5bd14f71427d1e84f3dd0314c0f7b2291e5b200ac8c7c3b92560405160405180910390a45050565b60006112778261113f565b6112b6576040517f08c379a00000000000000000000000000000000000000000000000000000000081526004016112ad906128c5565b60405180910390fd5b60006112c1836109a7565b90508073ffffffffffffffffffffffffffffffffffffffff168473ffffffffffffffffffffffffffffffffffffffff16148061133057508373ffffffffffffffffffffffffffffffffffffffff1661131884610639565b73ffffffffffffffffffffffffffffffffffffffff16145b8061134157506113408185610fc3565b5b91505092915050565b8273ffffffffffffffffffffffffffffffffffffffff1661136a826109a7565b73ffffffffffffffffffffffffffffffffffffffff16146113c0576040517f08c379a00000000000000000000000000000000000000000000000000000000081526004016113b7906129a5565b60405180910390fd5b600073ffffffffffffffffffffffffffffffffffffffff168273ffffffffffffffffffffffffffffffffffffffff161415611430576040517f08c379a000000000000000000000000000000000000000000000000000000000815260040161142790612885565b60405180910390fd5b61143b83838361187a565b6114466000826111b3565b6001600360008573ffffffffffffffffffffffffffffffffffffffff1673ffffffffffffffffffffffffffffffffffffffff16815260200190815260200160002060008282546114969190612c3a565b925050819055506001600360008473ffffffffffffffffffffffffffffffffffffffff1673ffffffffffffffffffffffffffffffffffffffff16815260200190815260200160002060008282546114ed9190612b59565b92505081905550816002600083815260200190815260200160002060006101000a81548173ffffffffffffffffffffffffffffffffffffffff021916908373ffffffffffffffffffffffffffffffffffffffff160217905550808273ffffffffffffffffffffffffffffffffffffffff168473ffffffffffffffffffffffffffffffffffffffff167fddf252ad1be2c89b69c2b068fc378daa952ba7f163c4a11628f55a4df523b3ef60405160405180910390a4505050565b600081836115b49190612b59565b905092915050565b600081836115ca9190612be0565b905092915050565b6115ec82826040518060200160405280600081525061198e565b5050565b6115fb84848461134a565b611607848484846119e9565b611646576040517f08c379a000000000000000000000000000000000000000000000000000000000815260040161163d90612845565b60405180910390fd5b50505050565b606060405180602001604052806000815250905090565b606060008214156116ab576040518060400160405280600181526020017f3000000000000000000000000000000000000000000000000000000000000000815250905061180b565b600082905060005b600082146116dd5780806116c690612d87565b915050600a826116d69190612baf565b91506116b3565b60008167ffffffffffffffff81111561171f577f4e487b7100000000000000000000000000000000000000000000000000000000600052604160045260246000fd5b6040519080825280601f01601f1916602001820160405280156117515781602001600182028036833780820191505090505b5090505b600085146118045760018261176a9190612c3a565b9150600a856117799190612dd0565b60306117859190612b59565b60f81b8183815181106117c1577f4e487b7100000000000000000000000000000000000000000000000000000000600052603260045260246000fd5b60200101907effffffffffffffffffffffffffffffffffffffffffffffffffffffffffffff1916908160001a905350600a856117fd9190612baf565b9450611755565b8093505050505b919050565b60007f01ffc9a7000000000000000000000000000000000000000000000000000000007bffffffffffffffffffffffffffffffffffffffffffffffffffffffff1916827bffffffffffffffffffffffffffffffffffffffffffffffffffffffff1916149050919050565b611885838383611b80565b600073ffffffffffffffffffffffffffffffffffffffff168373ffffffffffffffffffffffffffffffffffffffff1614156118c8576118c381611b85565b611907565b8173ffffffffffffffffffffffffffffffffffffffff168373ffffffffffffffffffffffffffffffffffffffff1614611906576119058382611bce565b5b5b600073ffffffffffffffffffffffffffffffffffffffff168273ffffffffffffffffffffffffffffffffffffffff16141561194a5761194581611d3b565b611989565b8273ffffffffffffffffffffffffffffffffffffffff168273ffffffffffffffffffffffffffffffffffffffff1614611988576119878282611e7e565b5b5b505050565b6119988383611efd565b6119a560008484846119e9565b6119e4576040517f08c379a00000000000000000000000000000000000000000000000000000000081526004016119db90612845565b60405180910390fd5b505050565b6000611a0a8473ffffffffffffffffffffffffffffffffffffffff166120cb565b15611b73578373ffffffffffffffffffffffffffffffffffffffff1663150b7a02611a336111ab565b8786866040518563ffffffff1660e01b8152600401611a55949392919061279c565b602060405180830381600087803b158015611a6f57600080fd5b505af1925050508015611aa057506040513d601f19601f82011682018060405250810190611a9d919061237f565b60015b611b23573d8060008114611ad0576040519150601f19603f3d011682016040523d82523d6000602084013e611ad5565b606091505b50600081511415611b1b576040517f08c379a0000000000000000000000000000000000000000000000000000000008152600401611b1290612845565b60405180910390fd5b805181602001fd5b63150b7a0260e01b7bffffffffffffffffffffffffffffffffffffffffffffffffffffffff1916817bffffffffffffffffffffffffffffffffffffffffffffffffffffffff191614915050611b78565b600190505b949350505050565b505050565b6008805490506009600083815260200190815260200160002081905550600881908060018154018082558091505060019003906000526020600020016000909190919091505550565b60006001611bdb84610a64565b611be59190612c3a565b9050600060076000848152602001908152602001600020549050818114611cca576000600660008673ffffffffffffffffffffffffffffffffffffffff1673ffffffffffffffffffffffffffffffffffffffff168152602001908152602001600020600084815260200190815260200160002054905080600660008773ffffffffffffffffffffffffffffffffffffffff1673ffffffffffffffffffffffffffffffffffffffff168152602001908152602001600020600084815260200190815260200160002081905550816007600083815260200190815260200160002081905550505b6007600084815260200190815260200160002060009055600660008573ffffffffffffffffffffffffffffffffffffffff1673ffffffffffffffffffffffffffffffffffffffff16815260200190815260200160002060008381526020019081526020016000206000905550505050565b60006001600880549050611d4f9190612c3a565b9050600060096000848152602001908152602001600020549050600060088381548110611da5577f4e487b7100000000000000000000000000000000000000000000000000000000600052603260045260246000fd5b906000526020600020015490508060088381548110611ded577f4e487b7100000000000000000000000000000000000000000000000000000000600052603260045260246000fd5b906000526020600020018190555081600960008381526020019081526020016000208190555060096000858152602001908152602001600020600090556008805480611e62577f4e487b7100000000000000000000000000000000000000000000000000000000600052603160045260246000fd5b6001900381819060005260206000200160009055905550505050565b6000611e8983610a64565b905081600660008573ffffffffffffffffffffffffffffffffffffffff1673ffffffffffffffffffffffffffffffffffffffff168152602001908152602001600020600083815260200190815260200160002081905550806007600084815260200190815260200160002081905550505050565b600073ffffffffffffffffffffffffffffffffffffffff168273ffffffffffffffffffffffffffffffffffffffff161415611f6d576040517f08c379a0000000000000000000000000000000000000000000000000000000008152600401611f6490612965565b60405180910390fd5b611f768161113f565b15611fb6576040517f08c379a0000000000000000000000000000000000000000000000000000000008152600401611fad90612865565b60405180910390fd5b611fc26000838361187a565b6001600360008473ffffffffffffffffffffffffffffffffffffffff1673ffffffffffffffffffffffffffffffffffffffff16815260200190815260200160002060008282546120129190612b59565b92505081905550816002600083815260200190815260200160002060006101000a81548173ffffffffffffffffffffffffffffffffffffffff021916908373ffffffffffffffffffffffffffffffffffffffff160217905550808273ffffffffffffffffffffffffffffffffffffffff16600073ffffffffffffffffffffffffffffffffffffffff167fddf252ad1be2c89b69c2b068fc378daa952ba7f163c4a11628f55a4df523b3ef60405160405180910390a45050565b600080823b905060008111915050919050565b60006120f16120ec84612ae5565b612ac0565b90508281526020810184848401111561210957600080fd5b612114848285612ce2565b509392505050565b60008135905061212b8161343c565b92915050565b60008135905061214081613453565b92915050565b6000813590506121558161346a565b92915050565b60008151905061216a8161346a565b92915050565b600082601f83011261218157600080fd5b81356121918482602086016120de565b91505092915050565b6000813590506121a981613481565b92915050565b6000602082840312156121c157600080fd5b60006121cf8482850161211c565b91505092915050565b600080604083850312156121eb57600080fd5b60006121f98582860161211c565b925050602061220a8582860161211c565b9150509250929050565b60008060006060848603121561222957600080fd5b60006122378682870161211c565b93505060206122488682870161211c565b92505060406122598682870161219a565b9150509250925092565b6000806000806080858703121561227957600080fd5b60006122878782880161211c565b94505060206122988782880161211c565b93505060406122a98782880161219a565b925050606085013567ffffffffffffffff8111156122c657600080fd5b6122d287828801612170565b91505092959194509250565b600080604083850312156122f157600080fd5b60006122ff8582860161211c565b925050602061231085828601612131565b9150509250929050565b6000806040838503121561232d57600080fd5b600061233b8582860161211c565b925050602061234c8582860161219a565b9150509250929050565b60006020828403121561236857600080fd5b600061237684828501612146565b91505092915050565b60006020828403121561239157600080fd5b600061239f8482850161215b565b91505092915050565b6000602082840312156123ba57600080fd5b60006123c88482850161219a565b91505092915050565b6123da81612c6e565b82525050565b6123e981612c80565b82525050565b60006123fa82612b16565b6124048185612b2c565b9350612414818560208601612cf1565b61241d81612ebd565b840191505092915050565b600061243382612b21565b61243d8185612b3d565b935061244d818560208601612cf1565b61245681612ebd565b840191505092915050565b600061246c82612b21565b6124768185612b4e565b9350612486818560208601612cf1565b80840191505092915050565b600061249f602b83612b3d565b91506124aa82612ece565b604082019050919050565b60006124c2603283612b3d565b91506124cd82612f1d565b604082019050919050565b60006124e5601c83612b3d565b91506124f082612f6c565b602082019050919050565b6000612508602483612b3d565b915061251382612f95565b604082019050919050565b600061252b601983612b3d565b915061253682612fe4565b602082019050919050565b600061254e602c83612b3d565b91506125598261300d565b604082019050919050565b6000612571603883612b3d565b915061257c8261305c565b604082019050919050565b6000612594602a83612b3d565b915061259f826130ab565b604082019050919050565b60006125b7602983612b3d565b91506125c2826130fa565b604082019050919050565b60006125da602183612b3d565b91506125e582613149565b604082019050919050565b60006125fd602083612b3d565b915061260882613198565b602082019050919050565b6000612620602c83612b3d565b915061262b826131c1565b604082019050919050565b6000612643602983612b3d565b915061264e82613210565b604082019050919050565b6000612666602f83612b3d565b91506126718261325f565b604082019050919050565b6000612689602583612b3d565b9150612694826132ae565b604082019050919050565b60006126ac601683612b3d565b91506126b7826132fd565b602082019050919050565b60006126cf602183612b3d565b91506126da82613326565b604082019050919050565b60006126f2603183612b3d565b91506126fd82613375565b604082019050919050565b6000612715602c83612b3d565b9150612720826133c4565b604082019050919050565b6000612738602083612b3d565b915061274382613413565b602082019050919050565b61275781612cd8565b82525050565b60006127698285612461565b91506127758284612461565b91508190509392505050565b600060208201905061279660008301846123d1565b92915050565b60006080820190506127b160008301876123d1565b6127be60208301866123d1565b6127cb604083018561274e565b81810360608301526127dd81846123ef565b905095945050505050565b60006020820190506127fd60008301846123e0565b92915050565b6000602082019050818103600083015261281d8184612428565b905092915050565b6000602082019050818103600083015261283e81612492565b9050919050565b6000602082019050818103600083015261285e816124b5565b9050919050565b6000602082019050818103600083015261287e816124d8565b9050919050565b6000602082019050818103600083015261289e816124fb565b9050919050565b600060208201905081810360008301526128be8161251e565b9050919050565b600060208201905081810360008301526128de81612541565b9050919050565b600060208201905081810360008301526128fe81612564565b9050919050565b6000602082019050818103600083015261291e81612587565b9050919050565b6000602082019050818103600083015261293e816125aa565b9050919050565b6000602082019050818103600083015261295e816125cd565b9050919050565b6000602082019050818103600083015261297e816125f0565b9050919050565b6000602082019050818103600083015261299e81612613565b9050919050565b600060208201905081810360008301526129be81612636565b9050919050565b600060208201905081810360008301526129de81612659565b9050919050565b600060208201905081810360008301526129fe8161267c565b9050919050565b60006020820190508181036000830152612a1e8161269f565b9050919050565b60006020820190508181036000830152612a3e816126c2565b9050919050565b60006020820190508181036000830152612a5e816126e5565b9050919050565b60006020820190508181036000830152612a7e81612708565b9050919050565b60006020820190508181036000830152612a9e8161272b565b9050919050565b6000602082019050612aba600083018461274e565b92915050565b6000612aca612adb565b9050612ad68282612d56565b919050565b6000604051905090565b600067ffffffffffffffff821115612b0057612aff612e8e565b5b612b0982612ebd565b9050602081019050919050565b600081519050919050565b600081519050919050565b600082825260208201905092915050565b600082825260208201905092915050565b600081905092915050565b6000612b6482612cd8565b9150612b6f83612cd8565b9250827fffffffffffffffffffffffffffffffffffffffffffffffffffffffffffffffff03821115612ba457612ba3612e01565b5b828201905092915050565b6000612bba82612cd8565b9150612bc583612cd8565b925082612bd557612bd4612e30565b5b828204905092915050565b6000612beb82612cd8565b9150612bf683612cd8565b9250817fffffffffffffffffffffffffffffffffffffffffffffffffffffffffffffffff0483118215151615612c2f57612c2e612e01565b5b828202905092915050565b6000612c4582612cd8565b9150612c5083612cd8565b925082821015612c6357612c62612e01565b5b828203905092915050565b6000612c7982612cb8565b9050919050565b60008115159050919050565b60007fffffffff0000000000000000000000000000000000000000000000000000000082169050919050565b600073ffffffffffffffffffffffffffffffffffffffff82169050919050565b6000819050919050565b82818337600083830152505050565b60005b83811015612d0f578082015181840152602081019050612cf4565b83811115612d1e576000848401525b50505050565b60006002820490506001821680612d3c57607f821691505b60208210811415612d5057612d4f612e5f565b5b50919050565b612d5f82612ebd565b810181811067ffffffffffffffff82111715612d7e57612d7d612e8e565b5b80604052505050565b6000612d9282612cd8565b91507fffffffffffffffffffffffffffffffffffffffffffffffffffffffffffffffff821415612dc557612dc4612e01565b5b600182019050919050565b6000612ddb82612cd8565b9150612de683612cd8565b925082612df657612df5612e30565b5b828206905092915050565b7f4e487b7100000000000000000000000000000000000000000000000000000000600052601160045260246000fd5b7f4e487b7100000000000000000000000000000000000000000000000000000000600052601260045260246000fd5b7f4e487b7100000000000000000000000000000000000000000000000000000000600052602260045260246000fd5b7f4e487b7100000000000000000000000000000000000000000000000000000000600052604160045260246000fd5b6000601f19601f8301169050919050565b7f455243373231456e756d657261626c653a206f776e657220696e646578206f7560008201527f74206f6620626f756e6473000000000000000000000000000000000000000000602082015250565b7f4552433732313a207472616e7366657220746f206e6f6e20455243373231526560008201527f63656976657220696d706c656d656e7465720000000000000000000000000000602082015250565b7f4552433732313a20746f6b656e20616c7265616479206d696e74656400000000600082015250565b7f4552433732313a207472616e7366657220746f20746865207a65726f2061646460008201527f7265737300000000000000000000000000000000000000000000000000000000602082015250565b7f4552433732313a20617070726f766520746f2063616c6c657200000000000000600082015250565b7f4552433732313a206f70657261746f7220717565727920666f72206e6f6e657860008201527f697374656e7420746f6b656e0000000000000000000000000000000000000000602082015250565b7f4552433732313a20617070726f76652063616c6c6572206973206e6f74206f7760008201527f6e6572206e6f7220617070726f76656420666f7220616c6c0000000000000000602082015250565b7f4552433732313a2062616c616e636520717565727920666f7220746865207a6560008201527f726f206164647265737300000000000000000000000000000000000000000000602082015250565b7f4552433732313a206f776e657220717565727920666f72206e6f6e657869737460008201527f656e7420746f6b656e0000000000000000000000000000000000000000000000602082015250565b7f596f75206e65656420746f206d696e74206174206c65617374203120746f6b6560008201527f6e00000000000000000000000000000000000000000000000000000000000000602082015250565b7f4552433732313a206d696e7420746f20746865207a65726f2061646472657373600082015250565b7f4552433732313a20617070726f76656420717565727920666f72206e6f6e657860008201527f697374656e7420746f6b656e0000000000000000000000000000000000000000602082015250565b7f4552433732313a207472616e73666572206f6620746f6b656e2074686174206960008201527f73206e6f74206f776e0000000000000000000000000000000000000000000000602082015250565b7f4552433732314d657461646174613a2055524920717565727920666f72206e6f60008201527f6e6578697374656e7420746f6b656e0000000000000000000000000000000000602082015250565b7f596f752063616e206f6e6c79206d696e7420313020746f6b656e73206174206160008201527f2074696d65000000000000000000000000000000000000000000000000000000602082015250565b7f4e6f7420656e6f7567682045746865722073656e742e00000000000000000000600082015250565b7f4552433732313a20617070726f76616c20746f2063757272656e74206f776e6560008201527f7200000000000000000000000000000000000000000000000000000000000000602082015250565b7f4552433732313a207472616e736665722063616c6c6572206973206e6f74206f60008201527f776e6572206e6f7220617070726f766564000000000000000000000000000000602082015250565b7f455243373231456e756d657261626c653a20676c6f62616c20696e646578206f60008201527f7574206f6620626f756e64730000000000000000000000000000000000000000602082015250565b7f4d696e74696e6720776f756c6420657863656564206d61782e20737570706c79600082015250565b61344581612c6e565b811461345057600080fd5b50565b61345c81612c80565b811461346757600080fd5b50565b61347381612c8c565b811461347e57600080fd5b50565b61348a81612cd8565b811461349557600080fd5b5056fea264697066735822122049e970287f182164138ba9b9f6d1081730293d6185658163047d406f92428d9e64736f6c63430008040033",
  "linkReferences": {},
  "deployedLinkReferences": {}
}