{
  "_format": "hh-sol-artifact-1",
  "contractName": "Minter7",
  "sourceName": "contracts/Minter7.sol",
  "abi": [
    {
      "inputs": [],
      "stateMutability": "nonpayable",
      "type": "constructor"
    },
    {
      "anonymous": false,
      "inputs": [
        {
          "indexed": true,
          "internalType": "address",
          "name": "owner",
          "type": "address"
        },
        {
          "indexed": true,
          "internalType": "address",
          "name": "approved",
          "type": "address"
        },
        {
          "indexed": true,
          "internalType": "uint256",
          "name": "tokenId",
          "type": "uint256"
        }
      ],
      "name": "Approval",
      "type": "event"
    },
    {
      "anonymous": false,
      "inputs": [
        {
          "indexed": true,
          "internalType": "address",
          "name": "owner",
          "type": "address"
        },
        {
          "indexed": true,
          "internalType": "address",
          "name": "operator",
          "type": "address"
        },
        {
          "indexed": false,
          "internalType": "bool",
          "name": "approved",
          "type": "bool"
        }
      ],
      "name": "ApprovalForAll",
      "type": "event"
    },
    {
      "anonymous": false,
      "inputs": [
        {
          "indexed": true,
          "internalType": "address",
          "name": "previousOwner",
          "type": "address"
        },
        {
          "indexed": true,
          "internalType": "address",
          "name": "newOwner",
          "type": "address"
        }
      ],
      "name": "OwnershipTransferred",
      "type": "event"
    },
    {
      "anonymous": false,
      "inputs": [
        {
          "indexed": true,
          "internalType": "address",
          "name": "from",
          "type": "address"
        },
        {
          "indexed": true,
          "internalType": "address",
          "name": "to",
          "type": "address"
        },
        {
          "indexed": true,
          "internalType": "uint256",
          "name": "tokenId",
          "type": "uint256"
        }
      ],
      "name": "Transfer",
      "type": "event"
    },
    {
      "inputs": [
        {
          "internalType": "address",
          "name": "to",
          "type": "address"
        },
        {
          "internalType": "uint256",
          "name": "tokenId",
          "type": "uint256"
        }
      ],
      "name": "approve",
      "outputs": [],
      "stateMutability": "nonpayable",
      "type": "function"
    },
    {
      "inputs": [
        {
          "internalType": "address",
          "name": "owner",
          "type": "address"
        }
      ],
      "name": "balanceOf",
      "outputs": [
        {
          "internalType": "uint256",
          "name": "",
          "type": "uint256"
        }
      ],
      "stateMutability": "view",
      "type": "function"
    },
    {
      "inputs": [
        {
          "internalType": "uint256",
          "name": "tokenId",
          "type": "uint256"
        }
      ],
      "name": "getApproved",
      "outputs": [
        {
          "internalType": "address",
          "name": "",
          "type": "address"
        }
      ],
      "stateMutability": "view",
      "type": "function"
    },
    {
      "inputs": [
        {
          "internalType": "address",
          "name": "addr",
          "type": "address"
        }
      ],
      "name": "getTokensByAddress",
      "outputs": [],
      "stateMutability": "nonpayable",
      "type": "function"
    },
    {
      "inputs": [
        {
          "internalType": "address",
          "name": "owner",
          "type": "address"
        },
        {
          "internalType": "address",
          "name": "operator",
          "type": "address"
        }
      ],
      "name": "isApprovedForAll",
      "outputs": [
        {
          "internalType": "bool",
          "name": "",
          "type": "bool"
        }
      ],
      "stateMutability": "view",
      "type": "function"
    },
    {
      "inputs": [
        {
          "internalType": "string",
          "name": "tokenURI",
          "type": "string"
        }
      ],
      "name": "mint",
      "outputs": [],
      "stateMutability": "payable",
      "type": "function"
    },
    {
      "inputs": [],
      "name": "mintPrice",
      "outputs": [
        {
          "internalType": "uint256",
          "name": "",
          "type": "uint256"
        }
      ],
      "stateMutability": "view",
      "type": "function"
    },
    {
      "inputs": [
        {
          "internalType": "address",
          "name": "to",
          "type": "address"
        },
        {
          "internalType": "string",
          "name": "tokenURI",
          "type": "string"
        }
      ],
      "name": "mintTo",
      "outputs": [],
      "stateMutability": "nonpayable",
      "type": "function"
    },
    {
      "inputs": [],
      "name": "name",
      "outputs": [
        {
          "internalType": "string",
          "name": "",
          "type": "string"
        }
      ],
      "stateMutability": "view",
      "type": "function"
    },
    {
      "inputs": [],
      "name": "owner",
      "outputs": [
        {
          "internalType": "address",
          "name": "",
          "type": "address"
        }
      ],
      "stateMutability": "view",
      "type": "function"
    },
    {
      "inputs": [
        {
          "internalType": "uint256",
          "name": "tokenId",
          "type": "uint256"
        }
      ],
      "name": "ownerOf",
      "outputs": [
        {
          "internalType": "address",
          "name": "",
          "type": "address"
        }
      ],
      "stateMutability": "view",
      "type": "function"
    },
    {
      "inputs": [],
      "name": "renounceOwnership",
      "outputs": [],
      "stateMutability": "nonpayable",
      "type": "function"
    },
    {
      "inputs": [
        {
          "internalType": "address",
          "name": "from",
          "type": "address"
        },
        {
          "internalType": "address",
          "name": "to",
          "type": "address"
        },
        {
          "internalType": "uint256",
          "name": "tokenId",
          "type": "uint256"
        }
      ],
      "name": "safeTransferFrom",
      "outputs": [],
      "stateMutability": "nonpayable",
      "type": "function"
    },
    {
      "inputs": [
        {
          "internalType": "address",
          "name": "from",
          "type": "address"
        },
        {
          "internalType": "address",
          "name": "to",
          "type": "address"
        },
        {
          "internalType": "uint256",
          "name": "tokenId",
          "type": "uint256"
        },
        {
          "internalType": "bytes",
          "name": "_data",
          "type": "bytes"
        }
      ],
      "name": "safeTransferFrom",
      "outputs": [],
      "stateMutability": "nonpayable",
      "type": "function"
    },
    {
      "inputs": [
        {
          "internalType": "address",
          "name": "operator",
          "type": "address"
        },
        {
          "internalType": "bool",
          "name": "approved",
          "type": "bool"
        }
      ],
      "name": "setApprovalForAll",
      "outputs": [],
      "stateMutability": "nonpayable",
      "type": "function"
    },
    {
      "inputs": [
        {
          "internalType": "uint256",
          "name": "newMintPrice",
          "type": "uint256"
        }
      ],
      "name": "setMintPrice",
      "outputs": [],
      "stateMutability": "nonpayable",
      "type": "function"
    },
    {
      "inputs": [
        {
          "internalType": "bytes4",
          "name": "interfaceId",
          "type": "bytes4"
        }
      ],
      "name": "supportsInterface",
      "outputs": [
        {
          "internalType": "bool",
          "name": "",
          "type": "bool"
        }
      ],
      "stateMutability": "view",
      "type": "function"
    },
    {
      "inputs": [],
      "name": "symbol",
      "outputs": [
        {
          "internalType": "string",
          "name": "",
          "type": "string"
        }
      ],
      "stateMutability": "view",
      "type": "function"
    },
    {
      "inputs": [
        {
          "internalType": "uint256",
          "name": "index",
          "type": "uint256"
        }
      ],
      "name": "tokenByIndex",
      "outputs": [
        {
          "internalType": "uint256",
          "name": "",
          "type": "uint256"
        }
      ],
      "stateMutability": "view",
      "type": "function"
    },
    {
      "inputs": [
        {
          "internalType": "address",
          "name": "owner",
          "type": "address"
        },
        {
          "internalType": "uint256",
          "name": "index",
          "type": "uint256"
        }
      ],
      "name": "tokenOfOwnerByIndex",
      "outputs": [
        {
          "internalType": "uint256",
          "name": "",
          "type": "uint256"
        }
      ],
      "stateMutability": "view",
      "type": "function"
    },
    {
      "inputs": [
        {
          "internalType": "uint256",
          "name": "tokenId",
          "type": "uint256"
        }
      ],
      "name": "tokenURI",
      "outputs": [
        {
          "internalType": "string",
          "name": "",
          "type": "string"
        }
      ],
      "stateMutability": "view",
      "type": "function"
    },
    {
      "inputs": [],
      "name": "totalSupply",
      "outputs": [
        {
          "internalType": "uint256",
          "name": "",
          "type": "uint256"
        }
      ],
      "stateMutability": "view",
      "type": "function"
    },
    {
      "inputs": [
        {
          "internalType": "address",
          "name": "from",
          "type": "address"
        },
        {
          "internalType": "address",
          "name": "to",
          "type": "address"
        },
        {
          "internalType": "uint256",
          "name": "tokenId",
          "type": "uint256"
        }
      ],
      "name": "transferFrom",
      "outputs": [],
      "stateMutability": "nonpayable",
      "type": "function"
    },
    {
      "inputs": [
        {
          "internalType": "address",
          "name": "newOwner",
          "type": "address"
        }
      ],
      "name": "transferOwnership",
      "outputs": [],
      "stateMutability": "nonpayable",
      "type": "function"
    }
  ],
  "bytecode": "0x6080604052670de0b6b3a7640000600d553480156200001d57600080fd5b506040518060400160405280600781526020017f4d696e74657235000000000000000000000000000000000000000000000000008152506040518060400160405280600781526020017f4d494e54455235000000000000000000000000000000000000000000000000008152508160009080519060200190620000a2929190620001b2565b508060019080519060200190620000bb929190620001b2565b505050620000de620000d2620000e460201b60201c565b620000ec60201b60201c565b620002c7565b600033905090565b6000600b60009054906101000a900473ffffffffffffffffffffffffffffffffffffffff16905081600b60006101000a81548173ffffffffffffffffffffffffffffffffffffffff021916908373ffffffffffffffffffffffffffffffffffffffff1602179055508173ffffffffffffffffffffffffffffffffffffffff168173ffffffffffffffffffffffffffffffffffffffff167f8be0079c531659141344cd1fd0a4f28419497f9722a3daafe3b4186f6b6457e060405160405180910390a35050565b828054620001c09062000262565b90600052602060002090601f016020900481019282620001e4576000855562000230565b82601f10620001ff57805160ff191683800117855562000230565b8280016001018555821562000230579182015b828111156200022f57825182559160200191906001019062000212565b5b5090506200023f919062000243565b5090565b5b808211156200025e57600081600090555060010162000244565b5090565b600060028204905060018216806200027b57607f821691505b6020821081141562000292576200029162000298565b5b50919050565b7f4e487b7100000000000000000000000000000000000000000000000000000000600052602260045260246000fd5b613bcb80620002d76000396000f3fe60806040526004361061014a5760003560e01c80636817c76c116100b6578063b88d4fde1161006f578063b88d4fde146104a1578063c87b56dd146104ca578063d85d3d2714610507578063e985e9c514610523578063f2fde38b14610560578063f4a0a528146105895761014a565b80636817c76c146103a357806370a08231146103ce578063715018a61461040b5780638da5cb5b1461042257806395d89b411461044d578063a22cb465146104785761014a565b806318160ddd1161010857806318160ddd1461026f57806323b872dd1461029a5780632f745c59146102c357806342842e0e146103005780634f6ccce7146103295780636352211e146103665761014a565b806275a3171461014f57806301ffc9a71461017857806306fdde03146101b557806307ca3645146101e0578063081812fc14610209578063095ea7b314610246575b600080fd5b34801561015b57600080fd5b5061017660048036038101906101719190612919565b6105b2565b005b34801561018457600080fd5b5061019f600480360381019061019a91906129a9565b61065f565b6040516101ac9190612e9f565b60405180910390f35b3480156101c157600080fd5b506101ca610671565b6040516101d79190612eba565b60405180910390f35b3480156101ec57600080fd5b50610207600480360381019061020291906127ae565b610703565b005b34801561021557600080fd5b50610230600480360381019061022b9190612a3c565b610706565b60405161023d9190612e38565b60405180910390f35b34801561025257600080fd5b5061026d6004803603810190610268919061296d565b61078b565b005b34801561027b57600080fd5b506102846108a3565b604051610291919061317c565b60405180910390f35b3480156102a657600080fd5b506102c160048036038101906102bc9190612813565b6108b0565b005b3480156102cf57600080fd5b506102ea60048036038101906102e5919061296d565b610910565b6040516102f7919061317c565b60405180910390f35b34801561030c57600080fd5b5061032760048036038101906103229190612813565b6109b5565b005b34801561033557600080fd5b50610350600480360381019061034b9190612a3c565b6109d5565b60405161035d919061317c565b60405180910390f35b34801561037257600080fd5b5061038d60048036038101906103889190612a3c565b610a6c565b60405161039a9190612e38565b60405180910390f35b3480156103af57600080fd5b506103b8610b1e565b6040516103c5919061317c565b60405180910390f35b3480156103da57600080fd5b506103f560048036038101906103f091906127ae565b610b24565b604051610402919061317c565b60405180910390f35b34801561041757600080fd5b50610420610bdc565b005b34801561042e57600080fd5b50610437610c64565b6040516104449190612e38565b60405180910390f35b34801561045957600080fd5b50610462610c8e565b60405161046f9190612eba565b60405180910390f35b34801561048457600080fd5b5061049f600480360381019061049a91906128dd565b610d20565b005b3480156104ad57600080fd5b506104c860048036038101906104c39190612862565b610ea1565b005b3480156104d657600080fd5b506104f160048036038101906104ec9190612a3c565b610f03565b6040516104fe9190612eba565b60405180910390f35b610521600480360381019061051c91906129fb565b610f15565b005b34801561052f57600080fd5b5061054a600480360381019061054591906127d7565b610f8a565b6040516105579190612e9f565b60405180910390f35b34801561056c57600080fd5b50610587600480360381019061058291906127ae565b61101e565b005b34801561059557600080fd5b506105b060048036038101906105ab9190612a3c565b611116565b005b6105ba61119c565b73ffffffffffffffffffffffffffffffffffffffff166105d8610c64565b73ffffffffffffffffffffffffffffffffffffffff161461062e576040517f08c379a0000000000000000000000000000000000000000000000000000000008152600401610625906130bc565b60405180910390fd5b600061063a600c6111a4565b9050610646600c6111b2565b61065083826111c8565b61065a81836111e6565b505050565b600061066a8261125a565b9050919050565b606060008054610680906133d2565b80601f01602080910402602001604051908101604052809291908181526020018280546106ac906133d2565b80156106f95780601f106106ce576101008083540402835291602001916106f9565b820191906000526020600020905b8154815290600101906020018083116106dc57829003601f168201915b5050505050905090565b50565b6000610711826112d4565b610750576040517f08c379a00000000000000000000000000000000000000000000000000000000081526004016107479061309c565b60405180910390fd5b6004600083815260200190815260200160002060009054906101000a900473ffffffffffffffffffffffffffffffffffffffff169050919050565b600061079682610a6c565b90508073ffffffffffffffffffffffffffffffffffffffff168373ffffffffffffffffffffffffffffffffffffffff161415610807576040517f08c379a00000000000000000000000000000000000000000000000000000000081526004016107fe9061311c565b60405180910390fd5b8073ffffffffffffffffffffffffffffffffffffffff1661082661119c565b73ffffffffffffffffffffffffffffffffffffffff16148061085557506108548161084f61119c565b610f8a565b5b610894576040517f08c379a000000000000000000000000000000000000000000000000000000000815260040161088b90612fdc565b60405180910390fd5b61089e8383611340565b505050565b6000600980549050905090565b6108c16108bb61119c565b826113f9565b610900576040517f08c379a00000000000000000000000000000000000000000000000000000000081526004016108f79061313c565b60405180910390fd5b61090b8383836114d7565b505050565b600061091b83610b24565b821061095c576040517f08c379a000000000000000000000000000000000000000000000000000000000815260040161095390612efc565b60405180910390fd5b600760008473ffffffffffffffffffffffffffffffffffffffff1673ffffffffffffffffffffffffffffffffffffffff168152602001908152602001600020600083815260200190815260200160002054905092915050565b6109d083838360405180602001604052806000815250610ea1565b505050565b60006109df6108a3565b8210610a20576040517f08c379a0000000000000000000000000000000000000000000000000000000008152600401610a179061315c565b60405180910390fd5b60098281548110610a5a577f4e487b7100000000000000000000000000000000000000000000000000000000600052603260045260246000fd5b90600052602060002001549050919050565b6000806002600084815260200190815260200160002060009054906101000a900473ffffffffffffffffffffffffffffffffffffffff169050600073ffffffffffffffffffffffffffffffffffffffff168173ffffffffffffffffffffffffffffffffffffffff161415610b15576040517f08c379a0000000000000000000000000000000000000000000000000000000008152600401610b0c9061301c565b60405180910390fd5b80915050919050565b600d5481565b60008073ffffffffffffffffffffffffffffffffffffffff168273ffffffffffffffffffffffffffffffffffffffff161415610b95576040517f08c379a0000000000000000000000000000000000000000000000000000000008152600401610b8c90612ffc565b60405180910390fd5b600360008373ffffffffffffffffffffffffffffffffffffffff1673ffffffffffffffffffffffffffffffffffffffff168152602001908152602001600020549050919050565b610be461119c565b73ffffffffffffffffffffffffffffffffffffffff16610c02610c64565b73ffffffffffffffffffffffffffffffffffffffff1614610c58576040517f08c379a0000000000000000000000000000000000000000000000000000000008152600401610c4f906130bc565b60405180910390fd5b610c626000611733565b565b6000600b60009054906101000a900473ffffffffffffffffffffffffffffffffffffffff16905090565b606060018054610c9d906133d2565b80601f0160208091040260200160405190810160405280929190818152602001828054610cc9906133d2565b8015610d165780601f10610ceb57610100808354040283529160200191610d16565b820191906000526020600020905b815481529060010190602001808311610cf957829003601f168201915b5050505050905090565b610d2861119c565b73ffffffffffffffffffffffffffffffffffffffff168273ffffffffffffffffffffffffffffffffffffffff161415610d96576040517f08c379a0000000000000000000000000000000000000000000000000000000008152600401610d8d90612f9c565b60405180910390fd5b8060056000610da361119c565b73ffffffffffffffffffffffffffffffffffffffff1673ffffffffffffffffffffffffffffffffffffffff16815260200190815260200160002060008473ffffffffffffffffffffffffffffffffffffffff1673ffffffffffffffffffffffffffffffffffffffff16815260200190815260200160002060006101000a81548160ff0219169083151502179055508173ffffffffffffffffffffffffffffffffffffffff16610e5061119c565b73ffffffffffffffffffffffffffffffffffffffff167f17307eab39ab6107e8899845ad3d59bd9653f200f220920489ca2b5937696c3183604051610e959190612e9f565b60405180910390a35050565b610eb2610eac61119c565b836113f9565b610ef1576040517f08c379a0000000000000000000000000000000000000000000000000000000008152600401610ee89061313c565b60405180910390fd5b610efd848484846117f9565b50505050565b6060610f0e82611855565b9050919050565b34600d541115610f5a576040517f08c379a0000000000000000000000000000000000000000000000000000000008152600401610f5190612edc565b60405180910390fd5b6000610f66600c6111a4565b9050610f72600c6111b2565b610f7c33826111c8565b610f8681836111e6565b5050565b6000600560008473ffffffffffffffffffffffffffffffffffffffff1673ffffffffffffffffffffffffffffffffffffffff16815260200190815260200160002060008373ffffffffffffffffffffffffffffffffffffffff1673ffffffffffffffffffffffffffffffffffffffff16815260200190815260200160002060009054906101000a900460ff16905092915050565b61102661119c565b73ffffffffffffffffffffffffffffffffffffffff16611044610c64565b73ffffffffffffffffffffffffffffffffffffffff161461109a576040517f08c379a0000000000000000000000000000000000000000000000000000000008152600401611091906130bc565b60405180910390fd5b600073ffffffffffffffffffffffffffffffffffffffff168173ffffffffffffffffffffffffffffffffffffffff16141561110a576040517f08c379a000000000000000000000000000000000000000000000000000000000815260040161110190612f3c565b60405180910390fd5b61111381611733565b50565b61111e61119c565b73ffffffffffffffffffffffffffffffffffffffff1661113c610c64565b73ffffffffffffffffffffffffffffffffffffffff1614611192576040517f08c379a0000000000000000000000000000000000000000000000000000000008152600401611189906130bc565b60405180910390fd5b80600d8190555050565b600033905090565b600081600001549050919050565b6001816000016000828254019250508190555050565b6111e28282604051806020016040528060008152506119a7565b5050565b6111ef826112d4565b61122e576040517f08c379a00000000000000000000000000000000000000000000000000000000081526004016112259061303c565b60405180910390fd5b806006600084815260200190815260200160002090805190602001906112559291906125d2565b505050565b60007f780e9d63000000000000000000000000000000000000000000000000000000007bffffffffffffffffffffffffffffffffffffffffffffffffffffffff1916827bffffffffffffffffffffffffffffffffffffffffffffffffffffffff191614806112cd57506112cc82611a02565b5b9050919050565b60008073ffffffffffffffffffffffffffffffffffffffff166002600084815260200190815260200160002060009054906101000a900473ffffffffffffffffffffffffffffffffffffffff1673ffffffffffffffffffffffffffffffffffffffff1614159050919050565b816004600083815260200190815260200160002060006101000a81548173ffffffffffffffffffffffffffffffffffffffff021916908373ffffffffffffffffffffffffffffffffffffffff160217905550808273ffffffffffffffffffffffffffffffffffffffff166113b383610a6c565b73ffffffffffffffffffffffffffffffffffffffff167f8c5be1e5ebec7d5bd14f71427d1e84f3dd0314c0f7b2291e5b200ac8c7c3b92560405160405180910390a45050565b6000611404826112d4565b611443576040517f08c379a000000000000000000000000000000000000000000000000000000000815260040161143a90612fbc565b60405180910390fd5b600061144e83610a6c565b90508073ffffffffffffffffffffffffffffffffffffffff168473ffffffffffffffffffffffffffffffffffffffff1614806114bd57508373ffffffffffffffffffffffffffffffffffffffff166114a584610706565b73ffffffffffffffffffffffffffffffffffffffff16145b806114ce57506114cd8185610f8a565b5b91505092915050565b8273ffffffffffffffffffffffffffffffffffffffff166114f782610a6c565b73ffffffffffffffffffffffffffffffffffffffff161461154d576040517f08c379a0000000000000000000000000000000000000000000000000000000008152600401611544906130dc565b60405180910390fd5b600073ffffffffffffffffffffffffffffffffffffffff168273ffffffffffffffffffffffffffffffffffffffff1614156115bd576040517f08c379a00000000000000000000000000000000000000000000000000000000081526004016115b490612f7c565b60405180910390fd5b6115c8838383611ae4565b6115d3600082611340565b6001600360008573ffffffffffffffffffffffffffffffffffffffff1673ffffffffffffffffffffffffffffffffffffffff168152602001908152602001600020600082825461162391906132e8565b925050819055506001600360008473ffffffffffffffffffffffffffffffffffffffff1673ffffffffffffffffffffffffffffffffffffffff168152602001908152602001600020600082825461167a9190613261565b92505081905550816002600083815260200190815260200160002060006101000a81548173ffffffffffffffffffffffffffffffffffffffff021916908373ffffffffffffffffffffffffffffffffffffffff160217905550808273ffffffffffffffffffffffffffffffffffffffff168473ffffffffffffffffffffffffffffffffffffffff167fddf252ad1be2c89b69c2b068fc378daa952ba7f163c4a11628f55a4df523b3ef60405160405180910390a4505050565b6000600b60009054906101000a900473ffffffffffffffffffffffffffffffffffffffff16905081600b60006101000a81548173ffffffffffffffffffffffffffffffffffffffff021916908373ffffffffffffffffffffffffffffffffffffffff1602179055508173ffffffffffffffffffffffffffffffffffffffff168173ffffffffffffffffffffffffffffffffffffffff167f8be0079c531659141344cd1fd0a4f28419497f9722a3daafe3b4186f6b6457e060405160405180910390a35050565b6118048484846114d7565b61181084848484611af4565b61184f576040517f08c379a000000000000000000000000000000000000000000000000000000000815260040161184690612f1c565b60405180910390fd5b50505050565b6060611860826112d4565b61189f576040517f08c379a00000000000000000000000000000000000000000000000000000000081526004016118969061307c565b60405180910390fd5b60006006600084815260200190815260200160002080546118bf906133d2565b80601f01602080910402602001604051908101604052809291908181526020018280546118eb906133d2565b80156119385780601f1061190d57610100808354040283529160200191611938565b820191906000526020600020905b81548152906001019060200180831161191b57829003601f168201915b505050505090506000611949611c8b565b905060008151141561195f5781925050506119a2565b60008251111561199457808260405160200161197c929190612e14565b604051602081830303815290604052925050506119a2565b61199d84611ca2565b925050505b919050565b6119b18383611d49565b6119be6000848484611af4565b6119fd576040517f08c379a00000000000000000000000000000000000000000000000000000000081526004016119f490612f1c565b60405180910390fd5b505050565b60007f80ac58cd000000000000000000000000000000000000000000000000000000007bffffffffffffffffffffffffffffffffffffffffffffffffffffffff1916827bffffffffffffffffffffffffffffffffffffffffffffffffffffffff19161480611acd57507f5b5e139f000000000000000000000000000000000000000000000000000000007bffffffffffffffffffffffffffffffffffffffffffffffffffffffff1916827bffffffffffffffffffffffffffffffffffffffffffffffffffffffff1916145b80611add5750611adc82611f17565b5b9050919050565b611aef838383611f81565b505050565b6000611b158473ffffffffffffffffffffffffffffffffffffffff16612095565b15611c7e578373ffffffffffffffffffffffffffffffffffffffff1663150b7a02611b3e61119c565b8786866040518563ffffffff1660e01b8152600401611b609493929190612e53565b602060405180830381600087803b158015611b7a57600080fd5b505af1925050508015611bab57506040513d601f19601f82011682018060405250810190611ba891906129d2565b60015b611c2e573d8060008114611bdb576040519150601f19603f3d011682016040523d82523d6000602084013e611be0565b606091505b50600081511415611c26576040517f08c379a0000000000000000000000000000000000000000000000000000000008152600401611c1d90612f1c565b60405180910390fd5b805181602001fd5b63150b7a0260e01b7bffffffffffffffffffffffffffffffffffffffffffffffffffffffff1916817bffffffffffffffffffffffffffffffffffffffffffffffffffffffff191614915050611c83565b600190505b949350505050565b606060405180602001604052806000815250905090565b6060611cad826112d4565b611cec576040517f08c379a0000000000000000000000000000000000000000000000000000000008152600401611ce3906130fc565b60405180910390fd5b6000611cf6611c8b565b90506000815111611d165760405180602001604052806000815250611d41565b80611d20846120a8565b604051602001611d31929190612e14565b6040516020818303038152906040525b915050919050565b600073ffffffffffffffffffffffffffffffffffffffff168273ffffffffffffffffffffffffffffffffffffffff161415611db9576040517f08c379a0000000000000000000000000000000000000000000000000000000008152600401611db09061305c565b60405180910390fd5b611dc2816112d4565b15611e02576040517f08c379a0000000000000000000000000000000000000000000000000000000008152600401611df990612f5c565b60405180910390fd5b611e0e60008383611ae4565b6001600360008473ffffffffffffffffffffffffffffffffffffffff1673ffffffffffffffffffffffffffffffffffffffff1681526020019081526020016000206000828254611e5e9190613261565b92505081905550816002600083815260200190815260200160002060006101000a81548173ffffffffffffffffffffffffffffffffffffffff021916908373ffffffffffffffffffffffffffffffffffffffff160217905550808273ffffffffffffffffffffffffffffffffffffffff16600073ffffffffffffffffffffffffffffffffffffffff167fddf252ad1be2c89b69c2b068fc378daa952ba7f163c4a11628f55a4df523b3ef60405160405180910390a45050565b60007f01ffc9a7000000000000000000000000000000000000000000000000000000007bffffffffffffffffffffffffffffffffffffffffffffffffffffffff1916827bffffffffffffffffffffffffffffffffffffffffffffffffffffffff1916149050919050565b611f8c838383612255565b600073ffffffffffffffffffffffffffffffffffffffff168373ffffffffffffffffffffffffffffffffffffffff161415611fcf57611fca8161225a565b61200e565b8173ffffffffffffffffffffffffffffffffffffffff168373ffffffffffffffffffffffffffffffffffffffff161461200d5761200c83826122a3565b5b5b600073ffffffffffffffffffffffffffffffffffffffff168273ffffffffffffffffffffffffffffffffffffffff1614156120515761204c81612410565b612090565b8273ffffffffffffffffffffffffffffffffffffffff168273ffffffffffffffffffffffffffffffffffffffff161461208f5761208e8282612553565b5b5b505050565b600080823b905060008111915050919050565b606060008214156120f0576040518060400160405280600181526020017f30000000000000000000000000000000000000000000000000000000000000008152509050612250565b600082905060005b6000821461212257808061210b90613435565b915050600a8261211b91906132b7565b91506120f8565b60008167ffffffffffffffff811115612164577f4e487b7100000000000000000000000000000000000000000000000000000000600052604160045260246000fd5b6040519080825280601f01601f1916602001820160405280156121965781602001600182028036833780820191505090505b5090505b60008514612249576001826121af91906132e8565b9150600a856121be919061347e565b60306121ca9190613261565b60f81b818381518110612206577f4e487b7100000000000000000000000000000000000000000000000000000000600052603260045260246000fd5b60200101907effffffffffffffffffffffffffffffffffffffffffffffffffffffffffffff1916908160001a905350600a8561224291906132b7565b945061219a565b8093505050505b919050565b505050565b600980549050600a600083815260200190815260200160002081905550600981908060018154018082558091505060019003906000526020600020016000909190919091505550565b600060016122b084610b24565b6122ba91906132e8565b905060006008600084815260200190815260200160002054905081811461239f576000600760008673ffffffffffffffffffffffffffffffffffffffff1673ffffffffffffffffffffffffffffffffffffffff168152602001908152602001600020600084815260200190815260200160002054905080600760008773ffffffffffffffffffffffffffffffffffffffff1673ffffffffffffffffffffffffffffffffffffffff168152602001908152602001600020600084815260200190815260200160002081905550816008600083815260200190815260200160002081905550505b6008600084815260200190815260200160002060009055600760008573ffffffffffffffffffffffffffffffffffffffff1673ffffffffffffffffffffffffffffffffffffffff16815260200190815260200160002060008381526020019081526020016000206000905550505050565b6000600160098054905061242491906132e8565b90506000600a600084815260200190815260200160002054905060006009838154811061247a577f4e487b7100000000000000000000000000000000000000000000000000000000600052603260045260246000fd5b9060005260206000200154905080600983815481106124c2577f4e487b7100000000000000000000000000000000000000000000000000000000600052603260045260246000fd5b906000526020600020018190555081600a600083815260200190815260200160002081905550600a6000858152602001908152602001600020600090556009805480612537577f4e487b7100000000000000000000000000000000000000000000000000000000600052603160045260246000fd5b6001900381819060005260206000200160009055905550505050565b600061255e83610b24565b905081600760008573ffffffffffffffffffffffffffffffffffffffff1673ffffffffffffffffffffffffffffffffffffffff168152602001908152602001600020600083815260200190815260200160002081905550806008600084815260200190815260200160002081905550505050565b8280546125de906133d2565b90600052602060002090601f0160209004810192826126005760008555612647565b82601f1061261957805160ff1916838001178555612647565b82800160010185558215612647579182015b8281111561264657825182559160200191906001019061262b565b5b5090506126549190612658565b5090565b5b80821115612671576000816000905550600101612659565b5090565b6000612688612683846131bc565b613197565b9050828152602081018484840111156126a057600080fd5b6126ab848285613390565b509392505050565b60006126c66126c1846131ed565b613197565b9050828152602081018484840111156126de57600080fd5b6126e9848285613390565b509392505050565b60008135905061270081613b39565b92915050565b60008135905061271581613b50565b92915050565b60008135905061272a81613b67565b92915050565b60008151905061273f81613b67565b92915050565b600082601f83011261275657600080fd5b8135612766848260208601612675565b91505092915050565b600082601f83011261278057600080fd5b81356127908482602086016126b3565b91505092915050565b6000813590506127a881613b7e565b92915050565b6000602082840312156127c057600080fd5b60006127ce848285016126f1565b91505092915050565b600080604083850312156127ea57600080fd5b60006127f8858286016126f1565b9250506020612809858286016126f1565b9150509250929050565b60008060006060848603121561282857600080fd5b6000612836868287016126f1565b9350506020612847868287016126f1565b925050604061285886828701612799565b9150509250925092565b6000806000806080858703121561287857600080fd5b6000612886878288016126f1565b9450506020612897878288016126f1565b93505060406128a887828801612799565b925050606085013567ffffffffffffffff8111156128c557600080fd5b6128d187828801612745565b91505092959194509250565b600080604083850312156128f057600080fd5b60006128fe858286016126f1565b925050602061290f85828601612706565b9150509250929050565b6000806040838503121561292c57600080fd5b600061293a858286016126f1565b925050602083013567ffffffffffffffff81111561295757600080fd5b6129638582860161276f565b9150509250929050565b6000806040838503121561298057600080fd5b600061298e858286016126f1565b925050602061299f85828601612799565b9150509250929050565b6000602082840312156129bb57600080fd5b60006129c98482850161271b565b91505092915050565b6000602082840312156129e457600080fd5b60006129f284828501612730565b91505092915050565b600060208284031215612a0d57600080fd5b600082013567ffffffffffffffff811115612a2757600080fd5b612a338482850161276f565b91505092915050565b600060208284031215612a4e57600080fd5b6000612a5c84828501612799565b91505092915050565b612a6e8161331c565b82525050565b612a7d8161332e565b82525050565b6000612a8e8261321e565b612a988185613234565b9350612aa881856020860161339f565b612ab18161356b565b840191505092915050565b6000612ac782613229565b612ad18185613245565b9350612ae181856020860161339f565b612aea8161356b565b840191505092915050565b6000612b0082613229565b612b0a8185613256565b9350612b1a81856020860161339f565b80840191505092915050565b6000612b33601483613245565b9150612b3e8261357c565b602082019050919050565b6000612b56602b83613245565b9150612b61826135a5565b604082019050919050565b6000612b79603283613245565b9150612b84826135f4565b604082019050919050565b6000612b9c602683613245565b9150612ba782613643565b604082019050919050565b6000612bbf601c83613245565b9150612bca82613692565b602082019050919050565b6000612be2602483613245565b9150612bed826136bb565b604082019050919050565b6000612c05601983613245565b9150612c108261370a565b602082019050919050565b6000612c28602c83613245565b9150612c3382613733565b604082019050919050565b6000612c4b603883613245565b9150612c5682613782565b604082019050919050565b6000612c6e602a83613245565b9150612c79826137d1565b604082019050919050565b6000612c91602983613245565b9150612c9c82613820565b604082019050919050565b6000612cb4602e83613245565b9150612cbf8261386f565b604082019050919050565b6000612cd7602083613245565b9150612ce2826138be565b602082019050919050565b6000612cfa603183613245565b9150612d05826138e7565b604082019050919050565b6000612d1d602c83613245565b9150612d2882613936565b604082019050919050565b6000612d40602083613245565b9150612d4b82613985565b602082019050919050565b6000612d63602983613245565b9150612d6e826139ae565b604082019050919050565b6000612d86602f83613245565b9150612d91826139fd565b604082019050919050565b6000612da9602183613245565b9150612db482613a4c565b604082019050919050565b6000612dcc603183613245565b9150612dd782613a9b565b604082019050919050565b6000612def602c83613245565b9150612dfa82613aea565b604082019050919050565b612e0e81613386565b82525050565b6000612e208285612af5565b9150612e2c8284612af5565b91508190509392505050565b6000602082019050612e4d6000830184612a65565b92915050565b6000608082019050612e686000830187612a65565b612e756020830186612a65565b612e826040830185612e05565b8181036060830152612e948184612a83565b905095945050505050565b6000602082019050612eb46000830184612a74565b92915050565b60006020820190508181036000830152612ed48184612abc565b905092915050565b60006020820190508181036000830152612ef581612b26565b9050919050565b60006020820190508181036000830152612f1581612b49565b9050919050565b60006020820190508181036000830152612f3581612b6c565b9050919050565b60006020820190508181036000830152612f5581612b8f565b9050919050565b60006020820190508181036000830152612f7581612bb2565b9050919050565b60006020820190508181036000830152612f9581612bd5565b9050919050565b60006020820190508181036000830152612fb581612bf8565b9050919050565b60006020820190508181036000830152612fd581612c1b565b9050919050565b60006020820190508181036000830152612ff581612c3e565b9050919050565b6000602082019050818103600083015261301581612c61565b9050919050565b6000602082019050818103600083015261303581612c84565b9050919050565b6000602082019050818103600083015261305581612ca7565b9050919050565b6000602082019050818103600083015261307581612cca565b9050919050565b6000602082019050818103600083015261309581612ced565b9050919050565b600060208201905081810360008301526130b581612d10565b9050919050565b600060208201905081810360008301526130d581612d33565b9050919050565b600060208201905081810360008301526130f581612d56565b9050919050565b6000602082019050818103600083015261311581612d79565b9050919050565b6000602082019050818103600083015261313581612d9c565b9050919050565b6000602082019050818103600083015261315581612dbf565b9050919050565b6000602082019050818103600083015261317581612de2565b9050919050565b60006020820190506131916000830184612e05565b92915050565b60006131a16131b2565b90506131ad8282613404565b919050565b6000604051905090565b600067ffffffffffffffff8211156131d7576131d661353c565b5b6131e08261356b565b9050602081019050919050565b600067ffffffffffffffff8211156132085761320761353c565b5b6132118261356b565b9050602081019050919050565b600081519050919050565b600081519050919050565b600082825260208201905092915050565b600082825260208201905092915050565b600081905092915050565b600061326c82613386565b915061327783613386565b9250827fffffffffffffffffffffffffffffffffffffffffffffffffffffffffffffffff038211156132ac576132ab6134af565b5b828201905092915050565b60006132c282613386565b91506132cd83613386565b9250826132dd576132dc6134de565b5b828204905092915050565b60006132f382613386565b91506132fe83613386565b925082821015613311576133106134af565b5b828203905092915050565b600061332782613366565b9050919050565b60008115159050919050565b60007fffffffff0000000000000000000000000000000000000000000000000000000082169050919050565b600073ffffffffffffffffffffffffffffffffffffffff82169050919050565b6000819050919050565b82818337600083830152505050565b60005b838110156133bd5780820151818401526020810190506133a2565b838111156133cc576000848401525b50505050565b600060028204905060018216806133ea57607f821691505b602082108114156133fe576133fd61350d565b5b50919050565b61340d8261356b565b810181811067ffffffffffffffff8211171561342c5761342b61353c565b5b80604052505050565b600061344082613386565b91507fffffffffffffffffffffffffffffffffffffffffffffffffffffffffffffffff821415613473576134726134af565b5b600182019050919050565b600061348982613386565b915061349483613386565b9250826134a4576134a36134de565b5b828206905092915050565b7f4e487b7100000000000000000000000000000000000000000000000000000000600052601160045260246000fd5b7f4e487b7100000000000000000000000000000000000000000000000000000000600052601260045260246000fd5b7f4e487b7100000000000000000000000000000000000000000000000000000000600052602260045260246000fd5b7f4e487b7100000000000000000000000000000000000000000000000000000000600052604160045260246000fd5b6000601f19601f8301169050919050565b7f4e6f7420656e6f756768204345542073656e742e000000000000000000000000600082015250565b7f455243373231456e756d657261626c653a206f776e657220696e646578206f7560008201527f74206f6620626f756e6473000000000000000000000000000000000000000000602082015250565b7f4552433732313a207472616e7366657220746f206e6f6e20455243373231526560008201527f63656976657220696d706c656d656e7465720000000000000000000000000000602082015250565b7f4f776e61626c653a206e6577206f776e657220697320746865207a65726f206160008201527f6464726573730000000000000000000000000000000000000000000000000000602082015250565b7f4552433732313a20746f6b656e20616c7265616479206d696e74656400000000600082015250565b7f4552433732313a207472616e7366657220746f20746865207a65726f2061646460008201527f7265737300000000000000000000000000000000000000000000000000000000602082015250565b7f4552433732313a20617070726f766520746f2063616c6c657200000000000000600082015250565b7f4552433732313a206f70657261746f7220717565727920666f72206e6f6e657860008201527f697374656e7420746f6b656e0000000000000000000000000000000000000000602082015250565b7f4552433732313a20617070726f76652063616c6c6572206973206e6f74206f7760008201527f6e6572206e6f7220617070726f76656420666f7220616c6c0000000000000000602082015250565b7f4552433732313a2062616c616e636520717565727920666f7220746865207a6560008201527f726f206164647265737300000000000000000000000000000000000000000000602082015250565b7f4552433732313a206f776e657220717565727920666f72206e6f6e657869737460008201527f656e7420746f6b656e0000000000000000000000000000000000000000000000602082015250565b7f45524337323155524953746f726167653a2055524920736574206f66206e6f6e60008201527f6578697374656e7420746f6b656e000000000000000000000000000000000000602082015250565b7f4552433732313a206d696e7420746f20746865207a65726f2061646472657373600082015250565b7f45524337323155524953746f726167653a2055524920717565727920666f722060008201527f6e6f6e6578697374656e7420746f6b656e000000000000000000000000000000602082015250565b7f4552433732313a20617070726f76656420717565727920666f72206e6f6e657860008201527f697374656e7420746f6b656e0000000000000000000000000000000000000000602082015250565b7f4f776e61626c653a2063616c6c6572206973206e6f7420746865206f776e6572600082015250565b7f4552433732313a207472616e73666572206f6620746f6b656e2074686174206960008201527f73206e6f74206f776e0000000000000000000000000000000000000000000000602082015250565b7f4552433732314d657461646174613a2055524920717565727920666f72206e6f60008201527f6e6578697374656e7420746f6b656e0000000000000000000000000000000000602082015250565b7f4552433732313a20617070726f76616c20746f2063757272656e74206f776e6560008201527f7200000000000000000000000000000000000000000000000000000000000000602082015250565b7f4552433732313a207472616e736665722063616c6c6572206973206e6f74206f60008201527f776e6572206e6f7220617070726f766564000000000000000000000000000000602082015250565b7f455243373231456e756d657261626c653a20676c6f62616c20696e646578206f60008201527f7574206f6620626f756e64730000000000000000000000000000000000000000602082015250565b613b428161331c565b8114613b4d57600080fd5b50565b613b598161332e565b8114613b6457600080fd5b50565b613b708161333a565b8114613b7b57600080fd5b50565b613b8781613386565b8114613b9257600080fd5b5056fea26469706673582212206c1cccfd06810f39f5582c3e08c77388f714623180fd808e246e8769fc82464864736f6c63430008040033",
  "linkReferences": {},
  "deployedLinkReferences": {}
}